:20000000003C0120A9EE000039FB021039FB021039FB021039FB021039FB021039FB021048
:1C00200039FB021039FB021039FB021039FB021039FB021039FB021011FB021002
:20003C0030B5ADF1540D029054E201208DF810000298039003984078002840F063820398EA
:20005C0080798DF84C000398C0798DF84D000398007A8DF84E0000208DF8500000208DF892
:20007C004F000398C07A8DF853000398807A8DF852000398407A8DF85100082113AA0020CB
:20009C0003F0CEFEB2480078401CC1B2AF48006800229AA311F055FE9B493CC905A83CC0A0
:2000BC000EC980E80E0005AB98489949994A009010200AF0AFFC8DF810009DF8100008B12A
:2000DC0012F053FF0B200090934801908F4893490278002310200AF09DFC8DF810009DF84C
:2000FC00100008B112F041FF19200090B548019086488A490278012310200AF08BFC8DF80D
:20011C0010009DF8100008B112F02FFF7F48AE490278922310200AF07DFC8DF810000020E0
:20013C0000907A48A9490278002310200AF072FC8DF810009DF8100008B112F016FFB54922
:20015C003CC90CA83CC00EC980E80E000CABB7486F49704A009010200AF05CFC8DF81000B2
:20017C009DF8100008B112F000FF0B2000906A480190AE4869490278002310200AF04AFC51
:20019C008DF810009DF8100008B112F0EEFE192000908C480190A5486049027801231020D0
:2001BC000AF038FC8DF810009DF8100008B112F0DCFE9E4884490278922310200AF02AFCF4
:2001DC008DF8100000200090984880490278002310200AF01FFC8DF810009DF8100008B140
:2001FC0012F0C3FE0398801D0BF04CFCAF490978012901DCB5A100E0B5A1009101905448DB
:20021C000078801DC1B2514800680022BAA311F098FDA648007801280CDD0EF00BFE012084
:20023C000090B948BA490190B84840F6B83200230EF058F9B7480221002210F0B7FD61E1B1
:20025C0002980390072012F079FBB34910200AF0E1FB8DF810009DF8100000903C480078F0
:20027C00801CC1B2394800680022ACA311F069FD03984078D0B90398408906F039F903988F
:20029C00001D0BF0FFFB009031480078401CC1B22E4800680022A5A311F053FD9D48012140
:2002BC00022210F083FDBA4812F04EFF9DF81000082815DAB748007890B90020009013489E
:2002DC0042490278002310200AF0A4FB0020009056483E490278002310200AF09BFB11E1ED
:2002FC005248AD49027810200AF094FB0748AA49027810200AF08EFB04E1C046496E697431
:20031C0069616C697A6564007C570100802E002099010110E90E0100101A0020B13001105E
:20033C0002980390072012F0FBFA7B4910200AF071FB8DF8100006480078401CC1B2034887
:20035C00006800227DA311F0FCFC03E0701A0020862F00209DF81000009094480078801C57
:20037C00C1B29348006800226CA311F0EAFC039880880CF0D9F89DF8100038B9844812F0BF
:20039C00EDFE64480221012210F010FD0020009085480E490278002310200AF03BFB002066
:2003BC000090224809490278002310200AF032FB7E480078C01CC1B27D480068002213F002
:2003DC00A8F89FE0741800201DEF0110ED7401100298039003988088ADF810000398807B8C
:2003FC008DF81A0003984089B0B90398C088ADF8120003980089ADF8140003984089ADF8F5
:20041C00160003988089ADF8180001208DF81B0005E0C0469857010000208DF81B005F4945
:20043C00102004AA0AF0F6FA6CE0C046812E00200298039003985A49828805AB10200AF068
:20045C00E9FA0398C07878B90DF116000BF01AFB009056480078801CC1B255480068002299
:20047C003CA311F06EFC11E00DF116000BF00AFB03998978009101904C480078801CC1B237
:20049C004B480068002239A311F05BFC454811F0DCFF04900498002834D00498008908F00D
:2004BC0023FF049813F03BF82CE0C046771A00203E480078401CC1B23C480078801CC2B290
:2004DC003B48006813F025F81CE0C04644657600494400C00298807800283FF4A6AD401FE8
:2004FC003FF4AEAE401E3FF41BAF401EA0D00A383FF46EAFDCE7C046257320416464723A60
:20051C002025730015B030BD1B1A0020F42B0020B5F00000D8170020AD3E02104E756D20C0
:20053C00436F6E6E733A20256400C046436F6E6E656374656420746F2025730044657669DF
:20055C00636520446973636F6E6E65637465642100C046C04C696E6B20506172616D2055C9
:20057C007064617465643A20257300C04C696E6B20506172616D2055706461746520466152
:20059C00696C656420307825783A20257300C046D02B0020761A002065020210D9570110BF
:2005BC00F9DC01102C2F0020802E0020862F0020701A00202DE9F84FDFF8B054A9780024F4
:2005DC00FF2904BF002012F085F8A87812F0E4FD054605F1680605F5C9773168086805F18A
:2005FC00900808B1EC8311E0B17B002904BFB07E00280BD198F80010002904BF3878002880
:20061C0004D1297F012904BF688CE8832989E88B4118491C6981284613F0BAFC01281EBFFB
:20063C00DFF84C040178012903D12889EC83401C68814FF6FF79B07E01280DD1B28B69897A
:20065C00288913F0A1FC38B1298968894A1C93B298422FD0B08B23E098F8000001280FD146
:20067C00B8F802206989288913F08EFC40B1298968894A1C93B298421CD0B8F802000FE0B6
:20069C003878012816D17A886989288913F07CFC80B1298968894A1C93B298420AD078882B
:2006BC0092B2904206D04844688180B213F068FC4844E883387801280ED129897888491C5E
:2006DC0089B2814208DB7C793C71002038702346A979224609F0CAFB05F59A71087920B1AB
:2006FC0028890021401CE983688105F12E08B07E012845D12A89B08B521C92B290423FD140
:20071C00688105F18601284613F036FCB08C6989688400202877E883E8894118A981B08B41
:20073C00298913F02DFC8146B8F80410308C728C01FB0909F08C8A4204BFB8F808108842CF
:20075C0002BFB18CB8F80630994207D000090090B38CA9795208002013F00AFCB07F88F8BB
:20077C000000708CA8F80400B08CA8F80600F08CA8F80800284613F0F7FB0220B07601E02B
:20079C00B8F80490EA8B501C00FB09F040F6C41909FB00F100912B68D3F80CC06144DFF8E5
:2007BC00D4C2D960DCF800E0B3499EF800A00B884FEA9A1ABAF1030F17D1DFF8C0C29CF856
:2007DC000FE05FEACE7C48BF00230ED45B1C1FFA83FCBCF1010F11BFB5F812C005F59A7C44
:2007FC00BCF806C00CF2DC5C01E0B5F812C00CFB00FC4FF4C87EBCFBFEFC0CF1010CC5F8C9
:20081C0014C00B80A86185F820204FF01C0BDFF870A2AB79DAF8000000F108021BFB03F34B
:20083C00D1582A68116100F10801AB79D26868691BFB03F3121ACA50DAF80000AB7900F10D
:20085C0008021BFB03F3D1582A68916000F10C02A9791BFB01F10C30525C02F0F00242F091
:20087C0002024254DAF80000AA79811C1BFB02F200208852387908B911F02CFFDAF80000BC
:20089C00AA7900F1100138791BFB02F240088854A879DAF800101BFB00F00844002141740D
:2008BC003879042814D1A879DAF800101BFB00F001F110023B7A125C103142EA83020A54DA
:2008DC00A979DAF800001BFB01F1084420214174DAF80000AA7900F112011BFB02F200209B
:2008FC0088526849A8790A6802F114034FEA401C143253F80C00AB79D5F814C05B0100EB76
:20091C004C00D050B07E02280DD10A68AE7902F11403760114329859AB7998F800605B0158
:20093C0019FB0600D0505548C27BD0075CD5DAF80000AC7900F108031BFB04F408301A59D3
:20095C00AB791BFB03F3A2F5A862C250DAF80000AC7900F108031BFB04F41A592B689A6097
:20097C000098121A1A610868AC7900F11403640114301A59AB795B0102F5F662C2503879D1
:20099C0004280BD10868AC7900F11403640114301A59AB795B0102F56162C2500868AB799A
:2009BC0000F114025B01D058C5F834016427364A0B68106BAE79006803F11C04B8F804301E
:2009DC004343B3FBF7F3760109FB03F0A0F59660A0512E4B1878012830D10968A87901EB42
:2009FC0040110122CA7230E0042C0BD10868AC7900F11403640114301A59AB795B0102F5DF
:200A1C006162C25038790A68AC7904280CBF4FF4AA504FF4E66002F1140364011A59101AD4
:200A3C00B8F8042009FB02F2A2F516729042BDD30821284613F094FA012015E0506A0968E4
:200A5C00AA79407801EB4211C872A979DAF800000F4A1BFB01FB296858444860072010704B
:200A7C00284613F079FA0020BDE8F28F780E0020D10F00203C0F00204A2E0020980C0020C3
:200A9C00980E00209C0E0020A05A0100CC0F0020C80F00202DE9F04F0546C44CA978606923
:200ABC000027ADF11C0D0A290FDC0A2900F0B480002900F0B681491F00F0A881491E00F08F
:200ADC007781C81E00F05881D6E10B3900F08E80C91E00F08180491E0DD0481E40F0CC815B
:200AFC00227811F0E1FF002800F05D811046042108F00AF957E12E4628B143681BB1A888C7
:200B1C0039460A4698476078002862D0B08813F01FFA051C00F0B081B07A400810D33A466E
:200B3C0000926979A81D3B4601F0010109F084F830B1687920B1012802D0F068800A43D3F1
:200B5C00207A022802D1B07A00093DD3B6F804806D790C2012F038FC06F10809061C00F00B
:200B7C002281A6F80880B5723B463360B9F1000FF77209D04846082111F0C0FF706020B93A
:200B9C00304612F031FC0EE17360A069002808BFA66102D00368ABB90660304612F002FE54
:200BBC004A462946404605F081FE6069002800F0FA804368002B00F0F680394640460A4634
:200BDC009847F0E01846E5E7B088032113F0BCF952E1B08805211CE0002800F0E480436858
:200BFC00002B00F0E0806A780221C3E013F0A8F9002800F0D880606948B104683CB12869F6
:200C1C00009069892A7B6B7BE81CA047CBE06889012113F099F9C6E0B8466F78002F40F083
:200C3C009980A9794908C0F0958002A84146082212F0F6FDA88813F08BF9071C09D12278A9
:200C5C0011F032FF002866D01046042108F05CF861E06869002854D0064641460622113087
:200C7C0011F0B7FFC24630B330464146062211F0B0FFE0B9307C06F11109D346464600F0F6
:200C9C0001000590761CF6B289F80060CDF800B0059948465246534608F0CEFF10B9002EF9
:200CBC00F0D104E01EB1BAF1010F02D006E04FF0010A46466E61BAF1010F22D0686950B30B
:200CDC000646307C062206F1110100F001008DF80E0002A812F04CF8787906F11108012831
:200CFC0005D107F10C00B91D062212F041F8B81D4146062212F03CF8307C40F00200787144
:200D1C0009E07879B91D062200F001008DF80E0002A812F02DF8A9799DF80F20C1F3800070
:200D3C0010438DF80F00080905D39DF80F0040F008008DF80F0002A8294603F047FB5FEAC0
:200D5C00000803D1A8880FF02DF802E0A88810F0CFFB606938B343682BB3A8886A780121FA
:200D7C0098476878F8B9A87940081CD36069032142464368A88823E73B460093E978281D7B
:200D9C000DF1110201F0010108F056FF58B99DF81110062005F10C0211FB00F0253004217F
:200DBC00C0B211F063F9012766E0C0461C120020A88810F09DFB13F0BFF800285CD1E07A55
:200DDC00012814D0207B01280DD02D4C3D4614F8010F012803D1284607F0D6FC27706D1CDD
:200DFC000A2DF4DB0CE00CF0A6FC277308E012F09BF8394604F120000A22E17212F010FD0E
:200E1C00502011F01FF90EF05DFD35E0687898BBE8786A892B7B291D00F0010008F0CCFA9F
:200E3C002AE0687840BB13F083F8054613F07CF8044613F075F88DF8100010212A4602205F
:200E5C0011F014F903201021224611F00FF90420012104AA11F00AF99DF81000012803D00A
:200E7C009DF81000032807D1012013F055F802460620014611F0FAF8384607B0BDE8F08F3C
:200E9C003B12002000B5ADF1240D02900298806800788DF80C00AEE10298806890F903008B
:200EBC008DF810009DF80C00002840F0B08102980299806889688078497800F0FF0001F0B0
:200EDC00FF0101EB0021ADF81410BDF814000EF071FB8DF816009DF81600082801DB12F099
:200EFC0044F89DF910007F2800F059819DF81610C80000EB0110C7494018417C4A1C4274C3
:200F1C009DF81620D00000EB0210D04A80189DF910200A549DF81600C10001EB0011BD48D9
:200F3C000918487C052390FBF3F25A43801A48740020ADF8180000208DF820009DF82000CE
:200F5C00052817DA9DF81610C80000EB0110BF4940189DF820100956BDF918004018ADF889
:200F7C0018009DF82000401C8DF820009DF820000528E7DB9DF81610BDF91830B44AC80064
:200F9C0000EB0110052193FBF1F1115400208DF81A0000208DF81B0000208DF81C009DF869
:200FBC001610C80000EB0110AA49085C002840F0F6809DF81610C80000EB0110A44908563C
:200FDC0010F11E0F16DB9DF81610C80000EB0110A149085C02280DD09DF81610C80000EB94
:200FFC0001109D49085C28B102208DF81A008DF81B0063E09DF81610C80000EB01109449A1
:20101C00085610F11E0F20DA9DF81610C80000EB01108F49085610F1280F16DB9DF8161095
:20103C00C80000EB01108C49085C01280DD09DF81610C80000EB01108749085C28B10120E4
:20105C008DF81A008DF81B0038E09DF81610C80000EB01107E49085610F1320F1BDB9DF8AC
:20107C001610C80000EB01107949085610F1280F11DA9DF81610C80000EB01107649085C85
:20109C0048B104208DF81B0001208DF81C0006208DF81A0012E09DF81610C80000EB01107F
:2010BC006B49085610F1320F08DA04208DF81B0002208DF81C0002208DF81A009DF81A00E7
:2010DC0000286CD09DF81610C80000EB01106349095C9DF81A00884208D19DF81610C8002B
:2010FC0000EB01105E49085C02280ADB9DF81610C80000EB01105949095C9DF81A008842BF
:20111C004DD09DF81C0000909DF816109DF81B20C80000EB01103F499DF81B30085A00211B
:20113C000CF0A4FE9DF816104A4AC80000EB0110012111549DF81610C80000EB011047494C
:20115C00095C9DF81A00884207D09DF81610444AC80000EB0110002111549DF81C0048B979
:20117C009DF816103D4AC80000EB01109DF81A10115414E09DF81C00012808D19DF81610C7
:20119C00364AC80000EB01100621115407E09DF81610324AC80000EB0110022111549DF963
:2011BC00100000909DF81610C80000EB01102849085601902C480078401DC1B229480068FF
:2011DC00002215A310F0BDFD21E09DF80C00F0B902988068C078009002988068007901903E
:2011FC0021480078C01DC1B21E480068002212A310F0A7FD0BE00298808841F20541401AF9
:20121C003FF44AAEA0F62B400028DED0FFE709B000BDC04678270020525353493A2564206B
:20123C0064426D2C2041564720525353493A25642064426D00C046C0525850683A202564F3
:20125C002C20545850683A20256400C0842700208A2700208B2700208C2700208D2700200A
:20127C008E270020701A0020862F00202DE9F84FDFF800830F460646F80B80F08181BA4D2A
:20129C00BE4C2878B90F80F01C81B90880F01081DFF8D892DFF8D8A2DFF8DCB2F90A80F087
:2012BC008580390B54D2380907D2F80FC0F09E8127F080470DF056F898E112F08BFA05463F
:2012DC0010F0B6FF00283DD010F04AFC002839D04C4603202070C94812F076FA284612F059
:2012FC0017FE09F041F80220002110F08FFF022010F048F8112008F093F9C148007820B949
:20131C0055462868403012F075FABE48007810B90E2008F085F9607B20B1002060730520F6
:20133C0010F030F8002041462070B74AB1F91C00B1F91E106260884214BF022007200BF0F0
:20135C00C1FC02E0284612F0E3FD27F00807B1E720B1042010F016F80020287055462E68D8
:20137C0010F05EF840B1F0696FF4807100224FF0007384463046E0475E46306858B1206855
:20139C00006B8047326829680024801AC860C8683460000BC8609D489D49002212F020FAEE
:2013BC004C4627F400670220207083E712F012FA064610F03DFF002840460068009071D064
:2013DC0000286FD048464FF0040880F8008091498E48002212F004FA304612F099FD87480A
:2013FC0012F0F2F92068006B804701242C705E46306040460FF0E0FF009800695546416A8A
:20141C002860C90804D3016A00220B464146984720460CF077FF2868447507F027FE2B686C
:20143C00D3F8088040F60A0CACF10700421C454600E035466E6836B131888C4503D0884225
:20145C0018BF8A42F5D1002169606E7B64F303066E73009EF6683688B04219D0B24217D083
:20147C001E8DBEB1D96203F12800418093F8342061F3030283F8342093F8352064F30302DB
:20149C0083F835206860687B61F30300687301E0CBF80010404611F047FF0146204610F055
:2014BC00B5FE02E0304612F033FD27F480679DE00AF0A0FA41460831086808B927F00207AF
:2014DC0094E0554A116841F08001116020B104200FF058FF0020287012F07CF98146606D33
:2014FC000068014604208847D8B1307DC8B14B480568B5B120683469006B8047401B3061D6
:20151C003069000B30613069A04203D2001940083061306940F6C41181422CBFB0F5967F2C
:20153C003161484612F0F4FC0FF07AFF88B1F0696FF4807100224FF0007304463046A047A4
:20155C0041460868002808BF47F0020701D00CF009FFB06900214FF0806304460A46304608
:20157C00A04727F0005741E0492E0020882E0020382E00203C2C0020402E00208C01001033
:20159C0012F028F9414618310E685EB306F1280191E80C004FF0E0450A241D4004EA020130
:2015BC0008BF00291ED106F1280191E8300006F1280393E8060006F12803AA43A14383E866
:2015DC00060012F0A5FCB16871B1002D08BF002C0AD03069B6F93C10B2682B46164622462E
:2015FC00B04701E012F094FC27F480471FB10C48394612F007F9BDE8F88FC046882B0020D9
:20161C00482E002062590100BD7E0000B82C00207195000031260100CC2108403C2E002000
:20163C00782A00202DE9F84F0E46700688B029D5DFF834231078002112F066FC040021D03F
:20165C00CA4908688047054611F0E8FF012804D011F0A2FE6168884203D140F2014012F077
:20167C004FFC00202072201D0AF02AFBC0490A6828469047204612F03FFCFF2243212046A7
:20169C0012F036FCF0070BD511F086FE28B100218160B848006800B1804786F0010060E12B
:2016BC00B00710D5002006900021049000230290009005910393019101223C2012F014FC73
:2016DC0086F002004DE170074FF01E08AA4F40F1A780002007908346A8480078002112F010
:2016FC0013FCA74904468878FF2804BF002010F0F1FFA07A11F050FD0546606D807A95F884
:20171C002E91022818BF032805F5947A07D138680D3012F0E5FB10B9386800F1070B514620
:20173C00484612F0D9FBA0B3606D807C3B68002818BF012804D11946504612F0C9FB04E0CE
:20175C0052464946184612F0BFFBFF2843D018FB00F83868404406225146C01D11F008FB23
:20177C00386810F80810404400F1010AC01D079041F00209606DC17A01F0010185F82E11A6
:20179C000622606D00F10C0105F5947011F0F0FA21E05146484612F093FBE0B138685246D2
:2017BC00494612F091FBFF2815D018FB00F8386840440D3012F094FB58B9386840440D3075
:2017DC0012F08EFB002801BF38684044407F012801D149F0020905F12C004B460178069195
:2017FC004189090905916A8C079904920122C088029140080390CDF804B0CDF800A0002058
:20181C00A97912F071FBD5F89C015E498842A8790CBF0021012112F04FFB86F00400A0E0CC
:20183C00300610D5002006900021049000230290009005910393019101223B2012F054FB34
:20185C0086F080008DE0F00445D54F4804683868C11D0D3012F02CFB2CE0207A012828D14C
:20187C00616D4878410724D504F13E000178022918BF03291DD14178386804F1380212F02B
:20189C0023FBFF2815D018FB00F5386828440D3012F026FB68B938682844C11D0D3012F044
:2018BC0007FB38682844C11D062204F1380011F05FFA2468002CD0D13448426834480078FE
:2018DC004FF480510EF0DAFA10B18E2012F0ECFA86F4805045E0B00505D511F02CFE2D4910
:2018FC0001200860FEE7710504D50AF0BAFA86F4806036E0700405D5812012F0D5FA86F4B7
:20191C0080402EE0B0042BD5234C206810B1002010F0E0FE4FF0FF30206000201F4C12F0F8
:20193C00BFFA216851F8202F684690471C48016B426B00910192C06A24681A491A4A02917B
:20195C000392ADF810006B462568184A18491948A8471949086003F069FF86F4005000E001
:20197C00002009B0BDE8F08FD50F0020581800205C180020480F0020680F0020D70F002012
:20199C00780E00204DE501104C0F0020880E0020C70F00207C052043380F0020200F002081
:2019BC001415002095330100A5330100EC0A002074190020280800201C0F0020C848027838
:2019DC00112A00D070472DE9F84FC64B1878002112F09AFA04000AD1002010F07BFE0020DC
:2019FC0010F078FEBDE8F24FFF2012F055BA04F14C0999F8000008B90121E172401C89F851
:201A1C000000C2B2E17DD9F804608A4220D2B07B401CB073D9F808104A7A520802F001023F
:201A3C0082F001021018B073A18BB06800EB8100B060607DC1060AD5628B99F80010A08BCE
:201A5C0000FB1121B068A63100EB8100306644E104F1280706F1900806F173054FF0000ABC
:201A7C004FD1A17F6975E07FA875D9F808205278930710D5E27FD30604D5C91E697500F0A6
:201A9C00EF00A875C6F874A085F800A00022A97D01F0FE011CE1900608D4F88B00B1F87EDE
:201ABC002876F88B00B1386AC8F80000D9F808004178C8070DD5F88B00281CBF386A002843
:201ADC0007D0C8F80000B97EF88B814238BF08462876E07FC1060BD5B06B397800EB8100B5
:201AFC00B063A18CA63100EB81007067022002E0C6F874A0002028700022E17F01F0FC0172
:201B1C00E6E0D9F808205278D30717D5A87D697D00F0F700891E01F03F0182075CBF891D46
:201B3C0040F00200420644BF491E00F0BF00A8756975C8F800A085F818A0CEE0401AC0B2EC
:201B5C000090900740F180800098012806F1400B44D1B06BA18C00EB8100B063A07F00F023
:201B7C003F00A0776875801EE17FA975687501F0F701A975D9F8082053785A0704D5801F79
:201B9C00687501F0FD01A9750023697DFA7E9BF8000001F03F018A18521CC0F3800192B272
:201BBC0000F0030012F074F900F59B70A0841E21A08C90FBF1F18AB2A97D01F0FE012046F3
:201BDC0012F062F985F800A0F88B00B1F87E2876F88B00B1386AC8F800007EE00228B06BEE
:201BFC00A18C00EB8100B06326D1E07FC10706D5687D811F6975A87D00F0FE00A87500236E
:201C1C00697DFA7E9BF8000001F03F018A18521CC0F3800192B200F0030012F039F900F5E2
:201C3C009B70A0840022A97D01F0FE01204612F02BF9787FABF81A007A7F0098521C101AB8
:201C5C00C0B2012814DD0BE0B06BA18C00EB8100B0637A7F0098E17F101ACA06C0B207D5F1
:201C7C00A28CB16BA63201EB820171670221297098B3D8F8003097F81BC0E27FA17F634446
:201C9C00C8F8003052084FEA4208D9F808205278530748BF28F00208920748BF28F008084D
:201CBC00012807D1387F2876C6F874A028F0100885F800A001F0C006404612F0E1F800F08B
:201CDC003F003043687585F81680002208F0FC012046BDE8F84F12F0D7B8BDE8F18F00BF68
:201CFC00C80F0020D50F00202DE9F847A84CA94DDFF8A482A94FAA4985B02278002A4FF46A
:201D1C00A05600F0FA80072A14D0092A18BF0A2A00F0F6800B2A18BF0C2A00F013810D2A91
:201D3C0000F0D180112A5AD19E4A1078002112F0EBF8002877D0C5F80080426D5378016DD6
:201D5C00994CDFF86882DB065DD50B4641F2044EB3F802C0F4451FBFB3F81A90F145B3F81E
:201D7C0032A0F24506D041F20A4EF4451CBFF145F24502D1A7F800E04DE04FF0000E40F65A
:201D9C0001044FF4806A4FF0180C0CFB0EFC03F1020939F80C90A7F8009019F47F4FF2D0E9
:201DBC00B9F1020F40F2EF80B9EB0A0918D0B9EB0A0412D04FF4406AB4EB0A0401D0A41E4B
:201DDC00012C40F2C980241FFBD040F2FA37E41BE8D0641E00F0D180E11E00F0C48086E0BB
:201DFC00B3F800C0A44540F0B7800EF1010EBEF1020FC8DD4FE0981C20F80C6010E00168D9
:201E1C00002008710CE0488E388041F20441401A01D0801F01D12C603DE041F206403880A5
:201E3C00C5F8008037E062488078FF2865D0C5F80080604A12681C2111FB00F1931C5B5A35
:201E5C003B8013F47F4FF4D04FF400641B1B5A4812D00A3B012B14D940F6F6341B1B032B8F
:201E7C0084BF5B1F012B0ED940F2FF341B1B0AD05B1E012B05D908E0921C41F201435352CC
:201E9C0001E0921C5652286005E0002010F022FC852012F001F849480078012106F034FF50
:201EBC002BE0092A53D146490A68508900284ED04449087811F0E0FF0021002011F0D8FF7E
:201EDC000020207019E048883880022805D9801B03D040F20442801A39D1887B801CC2B210
:201EFC00B52AA8BF662088730020488005E0002010F0F0FB842011F0CFFF06B0BDE8F087E2
:201F1C004888388010F47F4FFAD0B0F5A05FC8D041F6040290421AD12B4A92E8680002A84A
:201F3C002A4A80E868002A4D2A482E6800680023CDE9002356F85C7F274B02AAB8472749A8
:201F5C000880DAE74888388010F47F4FFAD0002010F0C0FB8520CEE7807B012818BF04289C
:201F7C0000D03E805CE7807B01287FF444AF9A1C41F2024122F80C1052E75078C2064CBFB4
:201F9C00886CC86E3BE7002010F0A4FB8320B2E7C80F0020480F0020756B02109A0F0020B5
:201FBC00940B0020D50F0020398B001041E70010780E0020980E002099D60010C70F002055
:201FDC00440F0020CA0F0020145B010002000080200F00201C0F002021E60000880F00202F
:201FFC0000B5ADF14C0D8DF8060000208DF807008F49002008708F4800789DF806108842AE
:20201C0002D18D48007801E08A4800788DF808009DF808000AF0E8FF854908709DF806006D
:20203C00242200210FF05AFD0420ADF800000A20ADF8020081480088ADF80400D0E07C48BF
:20205C000078002840F0C980BDF80400C01FADF804009DF80600BDF8041003AA05F072FC96
:20207C00BDF81A00ADF81C00BDF81C00C01DADF81E00BDF80410BDF81C00001D884203D8E7
:20209C009DF81600962803D001208DF8070002E000208DF807009DF81700400840D29DF812
:2020BC00170080083CD39DF80700002838D101208DF82200BDF81C10BDF80400401AADF828
:2020DC0020009DF81520BDF81C10BDF820000BF037FE8DF822009DF82200C8B99DF8080098
:2020FC00BDF82010BDF80020BDF81E3009F05EF8BDF81E10BDF800004018ADF80000BDF86E
:20211C000000B0F5005F0BDD49490520087007E001208DF80700BDF80400401EADF8040034
:20213C009DF8070038B9BDF81C10BDF80400401AADF8040054E000208DF8200043E0BDF888
:20215C000400BDF802102038814201DA202004E0BDF80210BDF80400401AADF82600BDF824
:20217C000400BDF82610401AADF804009DF80600BDF82630BDF804100AAA0EF091FCBDF8EE
:20219C002600ADF82400BDF8240000281BDDBDF82400684490F8280096280BD101208DF8C6
:2021BC002000BDF82410BDF804004018401CADF8040008E0BDF82400401EADF82400BDF847
:2021DC0024000028E3DC9DF8200048B9BDF80200BDF804108842B2DB02E04FF0FF3024E0F7
:2021FC00BDF80200BDF80410884205DABDF80000B0F5005FFFF623AF9DF808000BF08EF9FB
:20221C000B48007810B14FF0FF300EE0BDF800000A4908809DF806000AF0E6FE04490870EC
:20223C00BDF80000C0F5005000B213B000BDC046DB2D0020D42D0020D52D0020D82D002000
:20225C002DE9FC47040045D0DFF81C9299F80000092818BF0A2804D00B281CBF0C280D2855
:20227C0001D12120FDE0A078002111F04DFE050008BF4220F6D0A0787C49087005F1480640
:20229C00F068417801F01201022902BF706900280C2012D0687AE8B1A97B012904D1B4F8C8
:2022BC00030008B1812815DA6078402812DA284611F0DAFDB06808B90720D2E0B46105F17F
:2022DC002207A87B00281CBF0128042813D16848007808B91220C4E066494A78824208BF9F
:2022FC000920F8D07A7F05F13801802005F05CFE08B10B20B5E0607808B91120B1E020784E
:20231C00DFF874A1012879D1287A0021012829734FF00A0811D19AF8000040210EF0EEFEAA
:20233C00B4F8030008FB00F1402011F099FD010015D1B1696079487192E001202872E972CC
:20235C00697307F0D1F968604C494161F0684178C80605D5284611F07FFD01000BD080E0E5
:20237C000020388011F074FD85F82100284611F06BFD010075D1F0684178C8071CD505F174
:20239C004207B98800291CBF3068002814D03A788A4211D20F2011F053FD68B1F068017824
:2023BC008DF80010B888ADF801000F2039788DF80310694611F040FD99F8001000294FD137
:2023DC002F4A107800281EBFF168487810F0030F03D02C49086811F02BFD112089F800001D
:2023FC0001202872B4F8030008FB00F1402011F037FD010035D100F0EBFD31E0287A80B309
:20241C002149224E0868804704469AF8000040210EF074FE0020287211F000F9012804D031
:20243C0010F0BAFF6968884211D10FF00BFA40F2014011F065FD16491648086001219AF897
:20245C00000006F061FC31682046884708E0284611F0EAFC316820468847284611F04CFD7C
:20247C000020BDE8F68700BFC80F0020D60F0020D40F0020780E0020C70F0020413A000029
:20249C00880E00206C0F0020581800205C180020480F002041E700102DE9F84185B08046B2
:2024BC0011F8010B0027032808F1660508F1F40600F0A9800F2840F01181707A894F8207E5
:2024DC0050D508784A7808F5A47400EB02202080CA78887800EB022060804A79087900EB59
:2024FC000220A080CA79887900EB0220E080087A20728A7A487A00EB022060810A7BC87A3E
:20251C0000EB0220A0818A7B487B00EB0220E0810A7CC87B00EB022020828A7C487C00EB0E
:20253C00022060820A7DC87C00EB0220A082487D897D00EB0120E08208F5AA7004906089B4
:20255C000390207A0290B8F808000190E0880090A38862882188404611F062FCB0B1707A71
:20257C0041070DD40F2188F81911404611F054FC002804D138784FF4804106F0C5FBACE072
:20259C001E220F21404611F043FCA6E008F1860061888180A188C180E18801810221017011
:2025BC0000214180B8F83410C91DE983B8F832208188B1EB520F02BFC188B8F834209142EE
:2025DC0002BF0089B8F83610B0EB111F19D0287C012804BF697C0F2905D0687D18B10F218B
:2025FC00A976FE2176E0FC21404611F00DFCE0880090A3886288218898F8060011F000FC35
:20261C006BE0102166E0707AC2070FD430781A210128717005D1FF220D21404611F0ECFBC6
:20263C005CE00D21404611F0EFFB57E02F70AF7101203071082208F1B00011F0D9FB0146FC
:20265C00022208F1B80011F0D3FB08F1A80401460822204611F0CCFB07460821204611F099
:20267C00C3FB08F19C0404223946204611F0C0FB0421204611F0B8FB08F1A00011F0B0FB9C
:20269C0008F1980011F0A8FB1748018841F0800101803078012805D1FF220421404611F05A
:2026BC00ABFB1AE06E7C0F2E18BF142E03D00E2E18BF0C2E0DD12F7C404611F089FB042145
:2026DC00404611F0A1FB012F12BF3146AE76FD2100E00421404611F097FB0127384606B087
:2026FC00BDE8F081C70F00209C0F002000B5ADF1140D7748774907F0DFFD784810F01AFD4A
:20271C00754908600DF0F4FE0FF044FF0DF014FD00200090724874490190724841F28832D9
:20273C0000230BF0DFFE71480022152370490090102008F06FF90220ADF80C006D49BDF858
:20275C000C300022102008F065F901208DF80C0001208DF80D0000208DF80E0001208DF8BB
:20277C000F0003A84FF48062012363490090102008F050F90DF10D0040F2024201235E4941
:20279C000090102008F046F90DF10E005A49009040F203420123102008F03CF90DF10F00E2
:2027BC0040F20642012354490090102008F032F9524910204FF0FF3208F02CF950491020BE
:2027DC004FF0FF3208F026F90FF038FB404800780FF020F802A80021042209F0E7FF00201D
:2027FC00042102AA0CF00EFF4649474A102008F011F93748017850200DF0E2FC434902467A
:20281C00102008F007F93248017850200DF0D8FC3F490246102008F0FDF83E491020FB227F
:20283C0040F6480308F0F6F83B49102008F0F2F83A4808F06DFC4FF6FD7004F0CDFE2448BF
:20285C00017850200DF0BCFC03463548354900780422009000200190102008F0DBF80DF0A3
:20287C009DFD4FF0804000210BF02AFF2E4908602E490CA008602D484FF0FF3200210EF0F0
:20289C0095FA294829492A4B006805220CF06EF92848017824480068002207A30FF051FA70
:2028BC0005B000BD53696D706C65205065726970686572616C00C0463D3D3D3D3D3D3D3D06
:2028DC003D3D3D3D3D3D3D3D3D3D3D3D00C046C0742E0020782E00207C2E0020CC2E0020CE
:2028FC0053190020D02B0020B5F00000C018002019E00000111C02102D3400006D2301004E
:20291C00D127010021290100401A0020D96C02102D6D02100D520210397F01102D1C010056
:20293C00771A0020D94C0000701A0020D8170020E16E0000862F002000B5ADF1240D0090B4
:20295C0080487F49007808707E480078032840F0F2807C490020087079490020087001A870
:20297C0010F019FB01A800210FF014F87649086000208DF81D007549002008700FF0C4F858
:20299C00009900200DF012F97149086070487149006810F09BFE71486E4900680968B1FBD0
:2029BC00F0F06D4908706C486D490078401C08706A480068B0F5005F03D16A480068800BA0
:2029DC0005D16049012008705E480078B5E06048006828B95B49012008705A480078ACE03C
:2029FC005D4800788DF81C006FE09DF81C00002108AA04230EF054F89DF82000A52845D121
:202A1C009DF82100FE2841DC9DF8230096283DD14E48007840B99DF81C004C4908709DF8C3
:202A3C002100514908704BE04F499DF821000978884207DA4C480078FE2803D09DF82100E7
:202A5C0001280DD148499DF82100097888420EDD4548007801280AD19DF82100FE2806D11A
:202A7C009DF81C000AF0C0FA3549087028E0374800780AF0B9FA324908709DF81C00334913
:202A9C0008709DF821003849087019E09DF8200024280BD19DF81C008DF81D0032480078D8
:202ABC0070B99DF821003049087009E09DF82000B72805D09DF81C000AF096FA20490870BC
:202ADC009DF81C00401C8DF81C0025489DF81C100078884289DA1D480078D8B99DF81D0039
:202AFC0038B91D4800780AF019FD20490420088021E09DF81D00154908709DF81D004FF449
:202B1C00005109F069F9194908809DF81D00FFF767FA10E09DF81D0028B19DF81D000AF0D3
:202B3C0063FA07490870094800784FF4005109F053F90E4908800248007809B000BDC04695
:202B5C00DB2D0020F81A0020DC2D0020D62D0020D02D0020C02E0020D42D0020C82E002051
:202B7C00D52D0020C42E0020DA2D0020D82D00200EB58DF801108DF800008848006830B9BA
:202B9C004FF0FF3000210BF09BFD84490860834800680021002256A30FF0D3F897E07F484B
:202BBC0000680021002256A30FF0CBF87B4800680221002255A30FF0C4F897E09DF8010063
:202BDC0001280ED175480068002100224CA30FF0B8F8724800680221002251A30FF0B1F8C8
:202BFC0084E06E4800680021002245A30FF0A9F86A480068022100224FA30FF0A2F875E02D
:202C1C0066480068002100223DA30FF09AF863480068022100224DA30FF093F801208DF856
:202C3C0004009DF80400002860D09DF804000028FBD15BE0594800680021002230A30FF09D
:202C5C0080F8564800680221002244A30FF079F801208DF804009DF80400002846D09DF828
:202C7C0004000028FBD141E04C4800680021002223A30FF066F849480068022100223CA3A0
:202C9C000FF05FF801208DF804009DF8040000282CD09DF804000028FBD127E03F480068D8
:202CBC000021002216A30FF04CF83C4800680221002234A30FF045F801208DF804009DF836
:202CDC00040098B19DF804000028FBD10EE09DF80000801E3FF472AF801E3FF460AF401E4B
:202CFC008ED0401EA6D0401EBED0D7E70EBDC0463E3E3E535441434B2041535345525400E9
:202D1C002A2A2A4552524F522A2A2A003E3E204F5554204F46204D454D4F52592100C046A8
:202D3C003E3E20494E5445524E414C204657204552524F522100C0463E3E20494E544552D2
:202D5C004E414C204552524F522100C03E3E204943414C4C2041424F525421003E3E204952
:202D7C0043414C4C2054494D454F55542100C0463E3E2057524F4E47204150492043414C9A
:202D9C004C2100C03E3E2044454641554C54205350494E4C4F434B2100C046C0701A002035
:202DBC002DE9F8436C4C6D496D4E20700020086009216C4801700D21418040F201218180D2
:202DDC0069486A490860377869480770FF2F7178417008BFFF29B2788270F378C370357915
:202DFC0005717679467114D1FF2A08BFFF2B10D1FF2D08BFFF2E0CD15E490A7802704A7861
:202E1C0042708A788270CA78C2700A7902714979417159490278594D594E5A4F0A704278CC
:202E3C004A7082788A70C278CA7002790A7140794871FF2028706870A870E870287168717B
:202E5C00002051490880F06B504940780870F06B01784F480170F06B4E49807808704E491B
:202E7C00F06BC06C08604D49F06B90F83C0008704B49F06B90F83D000870F06B4069017970
:202E9C0048484A1E0270F06B4749C0783870F06B8069086008B90FF01DFCF06B4349C0694C
:202EBC00086008B90FF016FC10F08EFFF06B4049006A086008B90FF00DFCF06BDFF8F4800A
:202EDC00406AC8F8000008B90FF004FCF06B3A49806A086008B90FF0FDFB02F0A1F807280A
:202EFC000BD106F049FE20784FF4804105F00CFFBDE8F24300200FF0EDBB304801688847B0
:202F1C00D8F800100A6881469047D8F8002052F8041F00208847F068294A01883878014311
:202F3C001180484627490A6890470C21264810F047FF284610F040FF10F03AFF234800214A
:202F5C0001604FF6FF7181804FF400512078BDE8F44305F0D9BE00BFC70F0020380F00208E
:202F7C00D04F0050700E0020B63F00503C0F0020400E0020E8120050500E0020480E0020CC
:202F9C00A05A0100C40F00209E0F0020C60F0020D40F0020C30F00204C2F0020802F002006
:202FBC00812F0020CB0F0020200F0020240F0020280F00202C0F0020300F002058180020E8
:202FDC00A00F00205C180020FC0D0020800E00202DE9FE4F854D6E681EB9BDE8F74F10F0CE
:202FFC00E3BE3078DFF808B2824FDFF80C9201281CBF0228042841F64C5804D0402818BF4D
:20301C00802873D0EAE010F009FB0028FAD0307804F076FB824610F0C3FE044699F8010077
:20303C0000283CD000F0ECF810F0B6F80190016800914E6894B150460AF0DCFA02280DD0CB
:20305C009AF800100129DDD118B910F0A5FE4044A0600120A8701120387045E00099674863
:20307C000A78802A0AD108233B700078012870691ABFDBF824100978012109E007213970A0
:20309C000078012870690EBF0121DBF824104978C17201988179009889F802109AE0BAF1CD
:2030BC00000FAFD09AF80000564507D1012801D11CB998E000200FF00DFB15E00128A1D162
:2030DC00002CF6D010F068FE0146A06801F5C241A83110F05DFE18B910F05EFE4044A0604F
:2030FC00112038700120A870504673E099F80100002856D000F084F810F04EF88246DAF88D
:20311C0000000190466899F8020010F045F8029010F07EFA10F0070F1FD0A87804F0F0FA77
:20313C00009010F03DFE040017D0019900980AF061FA022811D000990A78012A0AD118B939
:20315C0010F02AFE4044A060112038700120A87000983FE000200FF0BDFA029850451ED0EB
:20317C00019926480A78802A0AD108233B700078012870691ABFDBF824100978012109E068
:20319C00072139700078012870690EBF0121DBF824104978C1729AF8060089F8020001982A
:2031BC0018E010F035FA10F0070F1CD0A87804F0A7FA064610F0F4FD04463078012812D1DA
:2031DC008CB110F0E9FD4044A060112038700120A8703046BDE8FE4F07F014B8BDE8FE4FFD
:2031FC0000200FF077BABDE8F78F00BFFC2E0020A05A0100C80F0020780E0020CC0F00209C
:20321C002DE9FE4FDFF8F88198F8011011B900200FF060FA10F0C0FD07464FF0000907F6AC
:20323C00C4170026774D784C11E030460FF0B4FF417951B12968827901F8092009F101016A
:20325C005FFA81F9394610F09FFD761CF6B220788642EADB98F80100814505D000200FF0BA
:20327C0039FA822010F018FE98F80100012840F0A880002601E0761CF6B22078864280F222
:20329C009A8030460FF088FF074678790028F2D02868B979027891421CBF00200FF01AFAB7
:2032BC00B87986E02868C05D0FF076FF00684068DAF808108268914204BF34467F1C00F0BB
:2032DC008E8090E0296808780123F6B24FF4D07211E0D8F8047007F5B17CCF5CBE4612FB58
:2032FC000EFE02FB00F43CF80EE03CF80440A64538BF38465B1CB342EBDB06464FF6FF7089
:20331C0010F03EFD8246F0B20FF046FF4FEA5A010068446840F6C410414301F5A060002755
:20333C000091019016E0F0B20FF036FF01680A78802A03D1DBF81410009A4A6101680A78F3
:20335C00402A06D131498079096801EB40110198C8617F1C4F4550DA2868C05D0246F1B23C
:20337C009142F6D04FF4D071D8F804304A43991803F5B173C9899A5A4B08934202D2891AD1
:20339C008945E6DA0FF008FF4FEA5A020068D0F804B0A068DBF8081040F6C413A1F6C41198
:2033BC0013FB020010F0F4FC0028BCD02868C05DC0B2BDE8FE8F00200FF08CF9822010F0A6
:2033DC006BFD98F80110286809F094FF286800780FF0E2FE00240168D1F804A00127661C21
:2033FC004F45FFF65FAFE4B2002C1CBFF0B200287FF468AF2868067880E73046D8E700BFC0
:20341C00780E0020340F0020D40F00209C0E00207FB5804D03461446084600261946A1F5AD
:20343C008062132A04D9183A33D0921E22D015E0DFE812F0E4001400DD00D600CE00C50081
:20345C00BE00B9001400AE00140014009D009200140014006B0052004B003700092907DA46
:20347C00022805D10846218810F086FC0646CDE00226CBE0002840F0C88010F05DFD30B908
:20349C000AF059F9064650200EF0DCFDBEE00C3587E0012840F0B980002C00F0B6800D35C5
:2034BC0084E0602800D13CB9012840F0AE80002C00F0AB80093579E005F1A000214660225A
:2034DC000FF056FC01206872A0E0012840F09D80207810F04DFC99E0012840F0968020782D
:2034FC00032880F29280002800F08F802B4603F1080108702078022818BF301C02D110200C
:20351C00D871012010F030FC80E007287DD1611C01A806220FF000FB33460093217801A886
:20353C0003AA06F089FBA8B910F006FD50B99DF80C0005F029F9064650200EF083FD0CF0ED
:20355C00C1F963E09DF80C002A46012102F1200529545BE0342659E0012856D1A87A2178B1
:20357C000028A97252D1207801284FD1E7E7297A01284AD1022904D02078062801DD112857
:20359C0004DB022941D1207810283ED1E8713DE000283AD110F0D0FC10B90FF0C5FCCAE765
:2035BC000B3501211AE001282FD1AD1D217815E001282AD12178012927D86D1D0EE010287C
:2035DC0023D128462146102240300FF0D1FB1DE001281AD12178012917D82D1D297015E0FE
:2035FC00012812D1217805290FDAED1CF6E701280BD12178012908D8AD1CEFE7012804D1C8
:20361C0021780329B8BF6D1CE8DB1826304600907FBDC0461C1200202DE9FE4F764D28786C
:20363C00002804D0401E03280CD9801F012840F2E1800A3840F0D880704A1078002110F07C
:20365C0063FC814609F15006DFF8B48170686D4F4178C80647BF3268906C3168C86E06221E
:20367C00016801F10804A11C01A80FF081FB22781E2402F00F01C2F3801003298DF8000012
:20369C002ED101A910F028FC002828D07068807C012818BF032822D1396801A810F018FCD1
:2036BC00FF281CD014FB00F43868025D2044411CD8F8000010F054FB53490A7890420ED02B
:2036DC0038682044C11DD8F8000001AA10F044FB38682044062201A9C01D0FF049FB76E0E6
:2036FC0002F00F00052872D19DF800004FEA521A01A910F0F1FB40F2014B08B37068807C60
:20371C00022818BF032862D1396801A810F0E0FB0546FF2D5BD0584614FB05FB10F0F0FBCF
:20373C0038685844C11DD8F8000001AA10F014FB38685844062201A9C01D0FF019FB19E0D2
:20375C002878022843D19DF80010386801AA10F0BBFB0546FF2D3AD0386814FB05F1084457
:20377C00417F012903D00D3010F0BAFB78B3584610F0C6FB70684178C8062FD5386814FBE2
:20379C0005F40622005D89F83F0038682044411C09F138000FF0ECFA1C488178480606D5D1
:2037BC005FEACA7003D4306841F20A4102E0306841F204414180418341861548154A018002
:2037DC001548164908600121107805F09DFA70684178C80602D53268906C01E03168C86EF7
:2037FC0001680020087105E000200EF073FF862010F052FBBDE8F78FC80F0020D50F00201D
:20381C006C0F0020680F0020802F0020C00C00209A0F0020C70F0020398B0010480F002095
:20383C002DE9FE4F0E468246307AC10693461C464FF000090CD5584610F08AFA030000F003
:20385C00E9800A223146504698475FEA00094DD13078DDF838800D9D0C9F02281AD17068E4
:20387C000178407801EB002189B24FF42052891A012910D9891E3AD0491E14D0FD397BD0CB
:20389C00491E00F08280491E6ED0491E74D0491E00F09680ACE0002D2AD1F06801783980B8
:2038BC000278416888E0002D22D101203880F0680178217000217089401C80B210F044FA20
:2038DC00398860B10278921C51183980418961704189090AA17002784168E01C6DE0091D95
:2038FC00398004220021601C0FF09AFF94E0002D67D1F0680588042139802570290A617063
:20391C0028460DF1020110F01FFA5FEA000821D0D8F80C50BDF802204FF6FF766B463146DC
:20393C0010F00EFA50B998F80030D8F804203C48022110F001FA08B9ADF800602878022874
:20395C000AD169680222201D0FF012FA3888801C388001E0ADF80050BDF80000A070BDF8CF
:20397C000000000AE07057E0002D2AD1F068016850460EF059FD02E01DBBF068008802210A
:20399C0039802070000A607046E0F0680FF04AFF80B2A842B8BF4FF007093DDB854208BF9A
:2039BC00002205D005EB08028242B4BF4246421B3A8092B2F068411920460FF0D9F92BE0EC
:2039DC0015B14FF00B0927E0F0680721398001782170417861704188A1704188090AE170D7
:2039FC0001792171C1886171C088000AA07113E0584610F09DF95FEA00090BD00F98029094
:203A1C00CDF8048000953B46224631465046C847814601E04FF00E094846BDE8FE8F00BF2A
:203A3C00985A01002DE9F84F7B4A82461078002110F06AFA9AF80010044601291CBF00206F
:203A5C000EF048FE14B900200EF044FE04F14C0B0025DBF808004178DBF80460C8064FF48C
:203A7C007A674FF00B0841F64C5929D506F1680005808570C57005714571C5800581857221
:203A9C00C5727567A07B012819D010F085F9B168484410F07DF9002811D010F07DF9484426
:203ABC00B06010F041F90B2290FBF2F2B16808FB12081FFA88F007FB0017B76027617CE029
:203ADC0006F1940005808570C57005714571C58005818572C572C6F8A05010F05DF9B1684E
:203AFC00484410F055F988B110F056F94844B06010F01AF90B2290FBF2F2B16808FB1208C7
:203B1C001FFA88F007FB0017B760276106F14007607DC1064FD5307CA27D521CC0F38001CD
:203B3C00002392B200F0030010F0B2F9A0831E20A28B02F59B731E2193FBF0F001FB1030E8
:203B5C00C0B208B1C0F11E008C46801800F59B7002F5967293B293FBFCFC01FB1C316083EF
:203B7C00A283C9B209B1C1F11E018A18A28392B2E17D491E4A4312FA80F06083618BB0683E
:203B9C00A63100EB810030660220F877618BB06800EB8100B0633878012802D1B06B0C3019
:203BBC00B063A18CB06BA63100EB81007067022086F8730001E03566FD776168DBF80400D1
:203BDC00486016488861DBF808205078C3065CBF10238B615078830703D5886940F40020A5
:203BFC0088610F4B187800281CBF527812F0030F03D0886940F4802088618BF80050DBF8CE
:203C1C000800017E11F0300F04D05046BDE8F24F0AF022BFBDE8F18FD50F002002000080EB
:203C3C00880E00202DE9F84F7A4DDFF8EC8128780E46F10BC90328D1A869F1080FD2300971
:203C5C0038BF0020C0F0E480A87B012804D14146087808B907F0C4FC86F00806D7E088B109
:203C7C000EF022FF071C0DD0F87A58B938460FF099FD7A68B97A388902F018FE786808B1FC
:203C9C000FF0B2FB86F00406C1E009F08DFA071C00F0BB80044620784FF0010BB0380FD079
:203CBC00401E03D01F3800F09E80A0E02079002840F09D807888F9883A890AF09FFEA1E068
:203CDC002079401E40D0083802D074387DD084E060781A2875D0608880460EF0DBFC801ED2
:203CFC0018D0401E79D1208901280AD16089032807D1E1688A78404604210AF051FE0246F8
:203D1C0000E018226869002867D04368002B64D0042116E0218960885A460129804609D11C
:203D3C006189032906D1E1688B781BB910210AF037FE0246686900284FD04368002B4CD0A8
:203D5C0005214046984748E0217A608804F1080A0829814635D10EF09DFC801E0ED0401E9B
:203D7C002FD16089042100220AF01AFE0246686938B343682BB36089042121E0BAF8020095
:203D9C00102100220AF00CFE0090484610F0E0F870B141460B784BB94179831D5A4601F0A0
:203DBC000101084619460FF0BBFF01E05846A873686930B1436823B1BAF80200009A052140
:203DDC00984760880BF0EEFF07E0658828460EF061FC014628460BF0DDF9217904F108005E
:203DFC000FF09AFF03E03846FCF754FE8346BBF1000F07D109480078FF2806D021460EF0E2
:203E1C00C9FC02E020460EF0B5FC86F40046B0B2BDE8F88F1C120020AA0F0020151B002005
:203E3C000EB500928DF805108DF8040000208DF80600BBE09DF80500082806D100999DF8D9
:203E5C000520694807F04EFACAE018208DF80600C6E09DF8050014280BDC6448002115225D
:203E7C0008F0A4FC00999DF80520604807F03AFAB6E018208DF80600B2E09DF805001428A7
:203E9C000BDC5B480021152208F090FC00999DF80520574807F026FAA2E018208DF8060052
:203EBC009EE09DF8050014280BDC52480021152208F07CFC00999DF805204E4807F012FA5D
:203EDC008EE018208DF806008AE09DF8050014280BDC49480021152208F068FC00999DF8FB
:203EFC000520454807F0FEF97AE018208DF8060076E09DF8050014280BDC404800211522F6
:203F1C0008F054FC00999DF805203C4807F0EAF966E018208DF8060062E09DF8050014286B
:203F3C000BDC37480021152208F040FC00999DF80520334807F0D6F952E018208DF80600EA
:203F5C004EE09DF805000FF0B7F902900298B0B12C482D490068814203D02A4800680FF080
:203F7C00DEFA029800999DF8052007F0BBF90298244908609DF805002449087030E0132084
:203F9C008DF806002CE09DF80500072806D100999DF805201E4807F0A5F921E018208DF8C2
:203FBC0006001DE002208DF8060019E09DF804000828F7D801A151F820008746513E00003D
:203FDC006F3E0000973E0000BF3E0000E73E00000F3F0000373F00005F3F0000A33F0000DD
:203FFC009DF806000EBDC046481A00201419002029190020D5180020EA1800203E19002062
:20401C00FF180020CC190020B4190020D0190020F01A00200EB58DF804009DF8040001281A
:20403C0035D16A480078012826D0694869490278102006F0EFFC684866490278102006F028
:20405C00E9FC664947200870654941200870002000906148634902780023102006F0DAFCAC
:20407C00002000905A485F4902780023102006F0D1FC5649012008705C4800780930C1B29A
:20409C005948006800223BA30DF05BFE6DE09DF80400022835D14D480078022826D04C48CE
:2040BC004C490278102006F0B5FC4B4849490278102006F0AFFC494947200870484942202A
:2040DC000870002000904448464902780023102006F0A0FC002000903D48424902780023C5
:2040FC00102006F097FC3949022008703F4800780930C1B23C480068002226A30DF021FE31
:20411C0033E03248007830B3314832490278102006F080FC30482F490278102006F07AFC85
:20413C002E49532008702E49502008700020009029482C4902780023102006F06BFC0020C2
:20415C0000902348274902780023102006F062FC1E4900200870254800780930C1B22248BD
:20417C000068002213A30DF0ECFD21480AF012FF01200EBD4175746F436F6E6E656374201A
:20419C00656E61626C65643A2047726F7570204100C046C04175746F436F6E6E6563742027
:2041BC00656E61626C65643A2047726F7570204200C046C04175746F436F6E6E6563742006
:2041DC0064697361626C656400C046C0761A0020812E002065020210802E0020121A0020B3
:2041FC00131A0020ED740110701A0020862F0020D817002000B5ADF1140D019001208DF8AB
:20421C00080080E00198FBF70BFF86E0019808F045F88DF8080080E00198FCF733FE7CE04B
:20423C0008200021FEF7A4FC77E00198039021E0039880781A280AD163480078401CC1B25E
:20425C0060480068002237A30DF07BFD0CE00398807800905C480078401CC1B259480068BE
:20427C0000223CA30DF06DFD019942F2320003F089F852E00398808842F23201401AD7D009
:20429C004BE001980390039880780C2845D10398C07850B14C480078401CC1B24948006826
:2042BC00002234A30DF04DFD1DE00398C079012801D13AA00CE00398C079022801D138A068
:2042DC0006E00398C079032801D136A000E037A000903D480078801CC1B23A4800680022D6
:2042FC0029A30DF02EFD01990C2003F04BF814E0019840780E388FD0401E96D0401E8FD047
:20431C002E38BED009E0019800789138F0D01F383FF47CAF20383FF475AF9DF8080005B054
:20433C0000BDC046504859204368616E6765206661696C7572652C207065657220646F65EF
:20435C0073206E6F7420737570706F7274207468697300C0504859205570646174652053A1
:20437C007461747573204576656E743A203078257800C046504859204368616E676520664C
:20439C0061696C75726500C0504859205570646174656420746F20257300C046314D00C0E8
:2043BC00324D00C0434F44454400C046556E6578706563746564205048592056616C7565FA
:2043DC0000C046C0701A0020862F00202DE9F04F4FF000080E468146ADF12C0DCDF80080A9
:2043FC0099F8061043460DF1260205F025FCDFF8ACA1E0B97069002837D09DF8261006207F
:20441C0004AA11FB00F023301021C0B20DF04AFA58BB04A8FF2110220EF0DBFB28BB99F846
:20443C000600494600F001000FF072FC1DE050460A27D346454600F150042046FF21062212
:20445C000EF0C7FB78B97F1E04F1080405F10105F3D19BF80D00002804BF0A208DF8260091
:20447C0007D09BF82A508DF826509DF826000A2801DB15208FE09DF8261006204A4611FB47
:20449C0000F505F120000821C0B20DF0EFFD9DF826000BF03FFC04A8FF2110220FF0C0F9CA
:2044BC009DF82600102104AA7030C0B20DF0DEFD9DF82600494608220AEBC00050300EF0B5
:2044DC0057FC726954467AB1107C02F11101434600F001000FF018FC72692AB105F12300E0
:2044FC001021C0B20DF0C2FDB2682AB105F121001C21C0B20DF0BAFD32692AB105F1220044
:20451C001C21C0B20DF0B2FDF26862B105F124001021C0B20DF0AAFDF26825350421E8B2E3
:20453C0010320DF0A3FDA07A08B10DF09DFBE169B58861B904F11000194A00904FF6FF71CA
:20455C00022301200FF0DCFB0146E16111B308A80090CDF8048002270297FF260396228A21
:20457C000DF122032846FFF75BF958B99DF823109DF82220E06912EB012204D0418928461F
:20459C000AF03CFAE069228A4FF6FF7143460FF0D7FBE06140460BB0BDE8F08F1C120020D7
:2045BC00745A010000B5ADF11C0D01928DF80A1000900098C089C01DADF808006B48BDF8FF
:2045DC00081000884018B0F5005F00F3CA800098017A0098C088001261F39F008DF81000F9
:2045FC000098C08800F0FF008DF8110000988088C0F387008DF81200009800998088C9893E
:20461C0000F00300C1F3851141EA80118DF813100098C08900F03F0080008DF8140000981C
:20463C00C089ADF80E005148BDF80E1000884018ADF80C00BDF808000C284ADC0199BDF8FF
:20465C000E204B4806F04EFE4949BDF80E00401804A90A68026009790171BDF80E00401DF9
:20467C0081B2434800220DF0ADFD8DF818009DF814109DF81800C0F3811008438DF814006C
:20469C009DF8180000F03F00800040F002008DF8150096208DF81600BDF80E0034494018ED
:2046BC0004A90A6802608A888280897981712F49BDF808302E4A9DF80A00098807F016FC3F
:2046DC002C4908702949BDF808200888801808803FE0BDF80E10019800220DF073FD8DF833
:2046FC0018009DF81820052104A80DF06BFD8DF818009DF814109DF81800C0F381100843F0
:20471C008DF814009DF8180000F03F00800040F002008DF8150096208DF8160013499DF87A
:20473C000A00BDF80E30019A098807F0DFFB114908709DF80A00BDF80C1004AA072307F052
:20475C00D5FB0C4908700949BDF808200888801808800848007838B1BDF80C000BF068FFED
:20477C0002E004490520087007B000BDD82D0020B42E0020DB2D00202DE9F04FADF1140D7A
:20479C000DF04CFC039020B10AF0ACFB4FF0FF3003906A4C04F10800006800B180475F4878
:2047BC0007780025029736E00098E16810F8062CA0F10C07032A2CD0029E9DF8053056B131
:2047DC00606A2946401E10F8012F934205D0761E01F10101F7D1FF2600E0CEB2504800686F
:2047FC00FF2E00F1080011D038790CF017FCB979012904D0022904BF0099887001E00099AD
:20481C000870009930460DF0C5FF04E00068804701E001B1884742480068C3690DF105019D
:20483C006A4601A898470028BED03E4A029E11683046AE42CCBF761B012690466F00CB5BB9
:20485C00DFF8E4B0DFF8E49023B96D1C761EEDB2F4D121E0A8421FDD5E4630688047D8F86F
:20487C000010002231F807A0CA53D9F8001088472F4850F82520257051462846904705468D
:20489C00FF20207030688047D8F800107A5A15437D52D9F8001088470DF0C0FB07460398C3
:2048BC00B8421DD007B9234FA069B84238BF071C5E4630688047824619480068016AE0695E
:2048DC008847226A16481C49521C00682262C56804F11C033846A84748460168504688473A
:2048FC000F48616802682069243291B9029ED8F800100025AE420EDD31F8150030B10848FA
:20491C000068416A20698847D8F800106D1CEDB2F0E71168884705B0BDE8F08F9D5A010018
:20493C00241B0020702F0020581800205C180020945501008EC2F5287110010040170020C9
:20495C002DE9F04F8246ADF11C0D01F089FC5C4800780AF08FFD5B4D0024012806D90C3827
:20497C0004D0401E0ED0401E09D006E00EF088F9022804BF01210C1C06D0296806E00521C5
:20499C001F2401E003210724284601604E4AD068C0F38150012804D112680120120E9040DC
:2049BC0004430EF0B9FCDFF828B1DFF82081FF2240185B46401E471CC8F800007F1E03F886
:2049DC00012BFBD1DAF80020002702F0FF03FE2B1CD0D4463B46012602F0FF05FF2D0ED0DF
:2049FC00A84205D3A94203D806FA05F52C4201D0022062E002F0FF022F430BF802305CF888
:204A1C00042F5B1C02F0FF05FE2DE7D1092004F0CFFE3048C0F800A0374801210DF0CCF8DB
:204A3C00364D00264FF00109B04609FA06F0044214D1074207BF06F0FF0141F4C0411BF800
:204A5C0006005AF82010244804F07EF8F0B24FF0FF310DF0C7FFC5F8008001E0042028603E
:204A7C001A480068761C2D1D8642DED904A80EF01BFC1A4C20781B4A05901948102104ABFB
:204A9C000BF056FF68460EF067FC6068174902901548CDF80C806A460CF07AF8144951F86F
:204ABC000D0C20F4F85040F4005041F80D0C114AC1F8FF9F4046C2F8009007B0BDE8F08F32
:204ADC00832F0020541A0020A84F0050501A00205C2C0020442F0020007FC767C459010083
:204AFC00F02C00201D2A0100E02A0020A90201000D3009402C0009400C2D0020B8280020EC
:204B1C00F0B56B4B04686B4D6B48617D1A68ADF1140D491E0E295BD8DFE801F060A9084B43
:204B3C004D9E124B1F8D2F4B7F334BC020690368806829685B684068CC69C118A04735E04C
:204B5C0021692D6888680B68E96940685B680D460021A84721698A681FE020692B68016897
:204B7C005C6D4A6980684D6840680092CA68019202958A680B694119E0E720690368C068C7
:204B9C00D7E721692D68C8680B68E96940685B680D460021A8472169CA680446096850682A
:204BBC004A680021801807F001FE20460AF06DFF7BE0002079E0206940684068017811F085
:204BDC00070F05D1C17F31F07F0001D1C80902D24FF0FF3069E06FF0200066E020692A68DF
:204BFC0041680368526C486859689047002818BF6FF0040059D1226929685068CB6A126870
:204C1C004068D168526898472868406A80470828FAD0286840688047C8E721690446086811
:204C3C00256D4268ED6D009201934E6889684968826803692BE0266904463068B168256DC7
:204C5C000769426849682D6A0097476901970292039376688A1819E0216904460868256D7E
:204C7C004268ED6D009201934E688169E0E7216904460868256D02692D6A009242690192DF
:204C9C004268029203934E68C269816983687068A8472068006A014613208847206800697B
:204CBC000146132088476FF01F0005B0F0BDC0463429002000020010B00100102DE9F04310
:204CDC001F4615460E468046ADF1140D0FF014F8022808BF122000F0C680042D19DA022471
:204CFC00012D18BF032D16D19FB1012D18BF032D11D13846002105220DF06BFF3846FF214A
:204D1C0006220DF066FF20B9787920F03F00C02801D00220A7E04046401E0FD0401E012828
:204D3C0009D9801E0AD0801E05D0801E012802D9001F03D096E0002C40F0948004200121CA
:204D5C0004AA0CF0AFFD002831D19DF81000FF2803D09DF81000854218D19DF81000854257
:204D7C0025D1012D18BF032D21D168460021062207F01CFD06206A4601460CF093FDB0B9E1
:204D9C006846394606220DF0E5FC80B9002140F209400A46FEF73CFB0446002140F21A407C
:204DBC000A46FEF735FB204318BF1E205BD12F48012D0570814618BF032D02D138460EF087
:204DDC0097FF2B4C062066700EF08EFFC0B200B96078207040460EF083FF041C42D16846A9
:204DFC000021102207F0E2FC99F8000030F001000DD00FF09DF8FF2110220DF0EAFE0128EC
:204E1C0009D1022010216A460CF04CFD18B9002069460EF061FF0FF087F8002110220DF088
:204E3C00D8FE01280FD1032010216A460CF03AFD48B96846FF2110220DF0CBFE18B9012087
:204E5C0069460EF049FF0FF06FF800210EF040FF0FF06EF80EF038FF0EF032FF0EF02CFF8B
:204E7C000EF026FFE0B205B0BDE8F083A90F0020141B002001282DE9F84F40F0B9806648D0
:204E9C00B438D0F8B010012940F0AF8081460220C9F8B0000CF0FAFF01200CF0A3F85FEAA9
:204EBC00000805D00120C9F8B0000DF003F8A1E00EF0A4FC009011200EF05CFB00280CBF47
:204EDC000025012510200EF055FB08B145F002050F200EF04FFB08B145F00405474CA06AED
:204EFC000068014601208847012805D099F8B400012818BF002703D1002007F015FC012769
:204F1C000EF032FBDFF8F8A040080AD20026206A80680146504688478346BBF1040FF6D025
:204F3C0000E00126304600214FF0FF3203F0B2FB012E0ED0BBF1010F05D1206A40680121B4
:204F5C0002465046904735496C39086840F003000860206840690146284688470B200EF074
:204F7C0009FB284E30B12068C06A3146091D0246088890470A200EF0FDFA28B12068C06A12
:204F9C0031460246088890471F4903200126C9F8B0001E4B0E6000221A602068406B0146BF
:204FBC00284688470128F8D1194C206804200CF019F80546174806602068012F02D1304677
:204FDC0007F0B2FB0EF0BDFA08200CF00BF807460098C9F8B0600EF067FE0CF06BFF57EA75
:204FFC00050018BF4FF0FF3804E06FF0040801E06FF001084046BDE8F88FC046B80100102A
:20501C00004003400E53010028200860800104432C2009400C400940D013002090220840F0
:20503C0038B5564D68790EF0CFF95549002808602BD00022026002730868C2610262A879E3
:20505C000EF0C2F94F49002808601ED000220260C27200200A68107405200B685874002013
:20507C0009684861E87A0EF0AFF94749002808600BD0464C21782878891C10FB01F080B259
:20509C000EF0A2F9424A0028906072D0207800283ED0698811FB00F080B20EF095F93D4976
:2050BC000028486065D020780EF08EF93A49002808605ED020781C2110FB01F080B20EF070
:2050DC0083F9364A0028106053D0207840010EF07BF93349002808604BD0207800010EF0F4
:2050FC0073F930490028086043D0207800010EF06BF92D49002808603BD02078302110FB0C
:20511C0001F080B20EF060F9284A0028106030D0274C284D2178287800EB4100C0001030A2
:20513C0080B20EF051F92449086010B300F1080141602878217800EB4100C000103080B20F
:20515C000EF042F91D49086098B100F1080141601E212078401C10FB01F080B20EF034F9BC
:20517C00174A106028B106200EF02EF91549086008B9072032BD002032BD00BF84190020F6
:20519C00500F0020540F0020440F0020D40F0020FC2E0020780E0020340F0020980E002062
:2051BC009C0E0020A00E0020A40E0020A80E0020812F0020802F00206C0F0020700F0020BA
:2051DC00680F0020400F002060480178042900D870472DE9F84FC91F012902D90A3931D042
:2051FC00AAE0DFF86CA19AF80200FF282AD00DF0D3FF83460BF16C0778680EF051FD804677
:20521C0098F8040003281DD1D8F80800047814F0030404D17868BDE8F24F0EF03DBD457816
:20523C00032C00F102090BF2171610D05DB1387800281CBF9BF8F410012904D13D20707089
:20525C000120307080E04348017801297CD09BF8940060B32D1FEDB24B462A46214658466C
:20527C000EF016FD48B93D20707001203070BDE8F24F394800680EF007BD384908688047B9
:20529C0000904FF4D0709BF80620DAF8041042438818002180F841110BF59E7001688079C0
:2052BC00490808F0DDF92E4900980A6890470020032CC8F8080018D02A48416909788A072E
:2052DC0009D541690878C1074CBF03200020401919F8000000E08120387223469AF8020002
:2052FC002A4649460EF0CCFC1DE099F800001A2803D21D49095C8D4205D0B07007215846D3
:20531C000EF082FD0CE011480178082908D049465846FDF7C1F818B9494658460EF0ACFCAF
:20533C00484609F061FF78680EF0B6FC41465846BDE8F44F0EF09CBC00200DF0CBF9BDE8F1
:20535C00F24F86200EF0A8BDBDE8F18FC80F0020780E0020D20F0020680F002058180020FD
:20537C005C180020A05A0100E05A010080B502AFADF1180D029301920091ADF80C00002014
:20539C008DF8100000990098496840680978407801F0FF0100F0FF0001EB0021ADF80E10E9
:2053BC008AE03888082803D907208DF81000A1E03888B988C0F10800884201D9B88802E0DE
:2053DC003888C0F10800029908804C4A39888918029A0198128805F085FF8BE00098C068AA
:2053FC000EF042FCADF814003988BDF81400884203DA07208DF810007CE03988BDF81400C9
:20541C00401AB988884201DDB88803E03988BDF81400401A0299088000993A88C9688918D6
:20543C00029A0198128805F05DFF63E0344839880078884203DA07208DF810005AE0304823
:20545C0039880078401AB988884201DDB88803E02B4839880078401A0299088029493A8834
:20547C0009688918029A0198128805F03BFF41E03888072803D907208DF810003AE038887E
:20549C00B988C0F10700884201D9B88802E03888C0F10700029908801B4A39888918029A33
:2054BC000198128805F01EFF24E00298002101800A208DF810001DE0BDF80E0042F6232150
:2054DC00401A072802D92D38D2D0EEE701A151F820008746BF530000F9530000F9530000EE
:2054FC00F9530000F9530000F9530000F9530000495400009DF8100006B080BD481A0020A9
:20551C00D0190020CC190020F01A00202DE9FE4F9B4615460C4606460EF05CF90CAFDFF815
:20553C006C910290D9F800000196B04208BFD9F804006FF0010828B178300DF09DFE002821
:20555C0040F092800CF0DEFC061C00F0988052480EF03AF9DFF838A1F460BAF91C002B79AB
:20557C00401C86F83E306FF31F30AAF81C00C6F808B0BAF81C00019AB0874648326197E8A2
:20559C000C0020210027B846776319403763104086F83F7006F1180383E8030006F120029A
:2055BC0082E88001A868B0632D6805B17563207B00F00F00022804BFA068306320460DF019
:2055DC00EEFA00886FF30900B0F5305F1CBF0222101C06D196F83F10082041F0100186F8D9
:2055FC003F1006F1180191E80C003D4606F11804104345EA030184E80300D9F82010019886
:20561C005446884207D199F82400410824BF00F0FE0089F8240004F10800009021696269DC
:20563C005346304609F05DFE10F1020F13D010F1030F10D096F83F002168B6F93C80019DA4
:20565C0040F0800086F83F008E4285F89C7016D108F088FE13E0B4F91C10804601F6FF710A
:20567C006FF31F31A18301E06FF0020899F8240040F0040089F824000198C9F8200002984C
:20569C000EF046FC4046BDE8FE8FC046142B00203C2C0020FFEFFF9F882B0020F8B50746B0
:2056BC0061485F4C001DC26A0168B7F5C067C2F30722C4F88C70C1F38441C4F89020C06951
:2056DC00C4F89410C0F38120C4F8A40000F0A38094F8AC606EB9C4F8A870D4F89400C4F8D8
:2056FC009C00D4F89060C4F89860D4F8A450C4F8A050D4F8A800D4F89050002854BF022396
:20571C006FF0010304F19C02116800EB4000C018431000EB937001EBA0011160D4F89C1044
:20573C00C4F8985000291CDD1E293DDDD4F8A00030B93429B4BF15391E21C4F89C1025E007
:20575C002A29BABFD4F89C000B381E20C4F89C00D4F898003E28D4BF401C3F20C4F89800B4
:20577C001FE0D4F8A000032812D011F10A0FA6BFD4F89C000B300120C4F89C00D4F8980095
:20579C000028CCBF401E0020C4F89800032009E011F1140FA6BFD4F89C0015300120C4F848
:2057BC009C000020C4F8A0004FF08057D7F8A401B4F898101B4D40684FF47F42082306464C
:2057DC00009128463021B047D7F8A40101214FF40032112340680091064604212846B04718
:2057FC00D7F8A401B4F89C1040684FF4F80212230646009104212846B047D7F8A401B4F820
:20581C00A01040684FF440620A230446009120212846A047F8BD002084F8AC00F8BDC046D9
:20583C001C13002000A00C4000A00C40F8B5454C454B2568186855F8183F00224FF0FF3115
:20585C0098470BF0FFFF4149414AC86B414D4069414E417941481170002201680A804A80A3
:20587C000A7100270068427100200EF019FB0EF0F7F93B4800680EF0EFF90EF0E9F94FF43B
:20589C00D0740CE06868F9B2614308444079012804D1F8B20DF080FC0EF0D6F97F1C317866
:2058BC00F8B28842EED30EF0CBF92E482E4A0178117009F01FFF0BF05DFB2C482C4A8078A1
:2058DC00C1074CBF072105211170000711784CBFFF20FB200840107000202649264A0870F6
:2058FC00002111700120254A1070254A1170254A10704FF4A470244A1170244A1170244A58
:20591C001170244A11801B21234A1180234A2449108008804FF429602249234A0880FB2177
:20593C00118044F29020214A118021490880214908800EF081F90EF07BF91F49002008700A
:20595C00F2BD00BF200F00201C0F0020A05A0100CA0F0020780E0020D40F0020400F002017
:20597C006C0F0020C60F0020D30F0020C00C0020C50F0020CC0F0020CD0F0020CE0F0020A5
:20599C00CF0F0020D00F0020D10F0020D20F00207F2F00209C0F00208A0F00208C0F0020E0
:2059BC008E0F0020900F0020920F0020960F0020940F0020980F0020C80F00202DE9F843F7
:2059DC005F4CDFF868815B4DD4F8B80000286ED0574E401E0AD0401E60D0401E1CD0401E9B
:2059FC0053D0401E1AD0401E33D02FE04E4801250221006884F8B6507022042340680091F5
:205A1C00002107464046B847356004F130000DF0D9FE2846BDE8F883022100E003214FF0F5
:205A3C008059D9F8A40184F8B61040680025702204232946074600954046B847D9F8A401E7
:205A5C00C0687022294613460125DAE70320BDE8F88300262E606E6028688008FCD2686846
:205A7C008008FCD2374834490127001D06600E200F6003F0D5FD02200BF084FCC4F8B8603A
:205A9C0084F8B7600220BDE8F8830520C4F8B8000027376030688008FCD242E00320C4F8CF
:205ABC00B8000027376030688008FCD239E0234F01260F202E6042F62A21C7F80B004FF06B
:205ADC008059C7F80F10D9F8A40140684FF4C072072302218446404600910021E047D9F819
:205AFC00A401C06800214FF4C072072384464046E0472E6028688008FCD394F8B500C7F811
:205B1C001B6018B9032100200E4602E0002028630321C4F8B86047F8011C68606868800884
:205B3C00FCD20020BDE8F883A401001000A00C4058600C4054600C4004800C4001400C4039
:205B5C001C13002038500C400EB50190019800788DF80800019800798DF809005EE0594895
:205B7C000078C01CC1B256480068002231A30CF0E8F85EE09DF8090050B952480078C01C97
:205B9C00C1B24F48006800222EA30CF0DAF850E09DF8090000904B480078C01CC1B248486E
:205BBC00006800222BA30CF0CCF842E09DF8090050B944480078C01CC1B241480068002282
:205BDC0029A30CF0BEF834E09DF8090000903D480078C01CC1B23A480068002227A30CF0CB
:205BFC00B0F826E09DF8090050B936480078C01CC1B233480068002226A30CF0A2F818E093
:205C1C009DF8090000902F480078C01CC1B22C480068002224A30CF094F80AE09DF8080028
:205C3C0000289CD0401EA5D0401EBFD0401ED9D0FFE70EBD50616972696E67207374617298
:205C5C007465640050616972696E6720737563636573730050616972696E67206661696C82
:205C7C003A20256400C046C0456E6372797074696F6E207375636365737300C0456E6372D3
:205C9C00797074696F6E206661696C65643A20256400C046426F6E6420736176652073757D
:205CBC00636365737300C046426F6E642073617665206661696C65643A20256400C046C031
:205CDC00701A0020862F00202DE9F84F044688B06088DFF860A189460DF0A6FF064604A821
:205CFC000090237B6189208904F10D020EF008F88046B01F0790ADF8140000254E484F4E88
:205D1C000690B8F1000FAFB27DD0BDF810206088414607F011FA0028834676D12079BDF88F
:205D3C00141003900022069802910192CDF800A041460368BDF810206088FDF771FD0028FC
:205D5C00834662D1A8B2002849D1608800234FF6FF7211210DF064FF0028706039D0BAF889
:205D7C000000001D70806D1C7168B8F80A00C855AAB2B8F80A007168000A8854BDF8102007
:205D9C0061890DF1120340460DF0DAFF6F1C80467D1CB8F1000FBFB203D17168FF20C85592
:205DBC0006E07168BDF81200C855BDF81200000A7168AAB26D1C8854069801687368BAF825
:205DDC000020A8B218440CF0D3FFBAF80000451997E7B8F80A00A9F80000112010E0BAF847
:205DFC0000007188021D914217D10799C0198142B9DA12E001002189A9F8001008BF0A20A6
:205E1C0009B0BDE8F08F002004E0B8F80A10A9F800105846ADB2002DECD0708897FBF0F0BA
:205E3C003080314660880DF0F7FE0028E8D01620E6E700BF840F0020080F0020380C002055
:205E5C002DE9F04790460F460DF0C4FC4146DFF8548183248146381C1AD0401E00F09680AE
:205E7C00401E00F08A80DFF838A1401E23D0401E1BD0401E17D152461768002F0CBF0020ED
:205E9C00F86808605768002F14BFF868002010E0404600F110021768002F08BF802478D003
:205EBC000069808F74E0032473E0524610680860506848606DE00D68C8220021284606F077
:205EDC0075FC02275146D44628462B4608315CF8042B5A600A7A1A744D689D6051F80C2BC2
:205EFC001E467F1E06F114032A44F260EFD141460F6987B10A6913690F69C362BA8F028564
:205F1C000A6992F83E300E6980F83830336B0D6903636A6B42634F6903229FB14B691E6947
:205F3C004D69970007EB02131B185E60AE8F4F691E8097F83E604F691E743E6B4F699E6097
:205F5C007D6BDD600F6827B3521C52B20A2A20DA3B69910001EB021109184B60BB8F0B803A
:205F7C0097F83E300B743B6B8B607B6BCB603F68561C72B2002FE9D10BE00B480278022ADD
:205F9C004FF0000008BF0120087002E007480078088048460DF0BCFF2046BDE8F087C04647
:205FBC00142B00203C2C0020882E0020982900202DE9FF4104466668A7680D460DF00AFC54
:205FDC003178012903D10DF0A3FF00208DE0012131700DF09DFF287870706878B070686826
:205FFC007060A868B060E868F06028693061287D3075687D7075A87DB075A869B061287FAC
:20601C003077687F4FF000087077A87FC6F82080C6F83080B077454675627563B562B56325
:20603C0086F82C5086F82D50786803F0C1FB204603F0D8FF204603F03FFD78B92C480068EE
:20605C00C068014638688847786803F0E9FA0DF0C1FB35700DF05CFF2C4645E068460DF098
:20607C0023F93A7B06F17C00B9680192214A00946B460AF05DFC68460DF06EF939690291C2
:20609C001D49009406F198006A460AF081FDB07830B906F1CC0029460BF08EFD174830617A
:2060BC00707830B906F1E80029460BF085FD1448F06068460DF000FB01958DF8005006F570
:2060DC008270104902940A226B4609F033F9B969FA6906F13C000DF0ACF80B4A06F16800B4
:2060FC00042123460BF0FAFE20460090BDE8FF81D00100102961000065B2000063370100CB
:20611C005B37010071FF0000953401002DE9F0478046D8F808603068076CD8F80450476471
:20613C006A6CA96B286C17F4F06FA0EB020937D1F8091FD2780979D3B9B196F82100464A55
:20615C00145C601E814294BF0C1C641E404621460AF0F0FFA86B001BA863A86B002865D1F5
:20617C0005F1980001210DF04DFB404649460BF027FA5BE00029F8D040460AF0DBFF014610
:20619C0095F82D00A96318B9A86B00284ED101E00020A86305F1980001210DF033FB45E0E6
:2061BC00F80A21D24FF0000A544603E0A86B401EA863A96B91B1404601210AF0BBFF306842
:2061DC00446814F00F04C0F804A0EFD0296BAB6B686B491E2963401E6863EBB905F19800FA
:2061FC0001210DF00FFB13E0306844680022202904F00F044260CCBF4FF0200A8A464046C5
:20621C0051460AF097FFCAF120008145C8BF8146494640460BF0D4F9EC77404607F0B4F9E2
:20623C00706A18B10246214640469047B80910D3AF6A77B1404639460AF0D0FFA862AD6ABF
:20625C003DB996F820000549095C4046C91909F0ABFBBDE8F087C046035A01000F5A0100DA
:20627C0048482DE9F043006842F21072ADF1140DB0FBF2F1514340F2AB22401A82427CD8B9
:20629C004A4C94F8BE00002875D14FF001083E4E84F8BE80307B84F8BD007768C4F8E8702F
:2062BC0001A80DF009FA4FF000094D4604F10C00CDF8089001AB8DF80450344903952A46D6
:2062DC0009F038F801A80DF0F7F904F130000822029501AB8DF804502D49039509F02AF84F
:2062FC002C4A04F1540032212B460AF021FB2A4F2A4A04F170002C212B463D600AF018FB2F
:20631C0027480078274D767B6868C0F381501EB1032803D184F8B58003281FD002281DD011
:20633C0001281BD14FF08057D7F8A4011E4C406803214FF040521C2306460091494620468A
:20635C00B047D7F8A401406849464FF4007209230646CDF800802046B04706E0386840F0FA
:20637C004000386002200BF027F82868C00802D248460BF021F8002000E0FEE705B0BDE8E0
:20639C00F083C0461C140050F458010023CF000059FC0000B1200100902208406DCC00004F
:2063BC00832F0020B04F005000A00C401C13002000B5ADF1340D03930292019100900DF088
:2063DC0027FC0490049807F089FC0590002006900DF01AFC8DF828009DF8280018B19DF8AC
:2063FC002800012802D16FF004007FE0059810B96FF004007AE0009810B90020079010E070
:20641C000098B0F1FF3F03D14FF0FF30079008E0009807A908F082F90990099808B10998D9
:20643C0064E0012009900DF0EBFB0799401808904AE00DF12E000DF12F010AAA08F0F2FBB2
:20645C0009900998002829D19DF82E000BA908F093F9C8B9019BBDF82C009DF82F100A9A53
:20647C00984788B1029818B1BDF82C0002990880039818B19DF82F00039908700A980E99FC
:20649C0008600020099029E00A9906A808F000FF059840684FF000510DF0AEFB0120099039
:2064BC000798B0F1FF3F0FD0079868B10DF0A8FB0899081A0C900C9880B107980C998842C9
:2064DC0000D20BE00C9807900598079B406800214FF000520DF08CFB0028AAD10AF0EAFE06
:2064FC0005980699083009F0ABFA09980DB000BD0EB5ADF8080015208DF80B0000208DF879
:20651C000A009DF80A00082880F285809DF80A10C80000EB01104149085A4FF6FF71814238
:20653C006FD19DF80A103D4AC80000EB0110BDF80810115203200CF0BFFE9DF80A20D10069
:20655C0001EB0211364A50509DF80A10C80000EB011033490858002847D09DF80A10C800FB
:20657C0000EB01102E490858082101709DF80A10C80000EB01102A490858BDF80810A0F8E7
:20659C00011024200CF098FE9DF80A20D10001EB0211244A50509DF80A10C80000EB0110E8
:2065BC0020490858B8B1012000909DF80A10C80000EB01101A49085801909DF80A10C8009E
:2065DC0000EB011017490858174941F27072002307F088FF0CE09DF80A10C80000EB01106E
:2065FC000F4908580CF09BFF02E013208DF80B009DF80A100D4AC80000EB0110012111543B
:20661C0009E09DF80A00401C8DF80A009DF80A000828FFF67BAF9DF80B000EBD78270020D3
:20663C007C27002080270020B5F000008C2700202DE9FC414A48017801291CBF0329112973
:20665C0040F08B80474F387800210DF05DFC5FEA000831D0D8F854004078810740F17D8042
:20667C00D8F85060C00604D5B06C016801F108041EE0F06E016801F108044FF49665207CBF
:20669C0003280FD8DFE800F002050B084FF4EE650BE04FF4C46508E040F6E86505E041F687
:2066BC00F03502E000200CF015F8B06B2D18B56306200DF0C5FB00284FD0D8F85400017E49
:2066DC00C80740D50B200CF087FE050037D013202870062238786870A11C2078C0F38010EF
:2066FC00A870E81C0CF044FBE07B00F03F006872A17B802918BF81290FBF7F211A4A107823
:20671C00091AA972E91CA8780DF0E6FBA0B1174F3968E81C0DF0DCFBFF280DD01E2148431E
:20673C003968095C41F00201A970062239684B1C1918E81C0CF01CFB2946062001E00021DB
:20675C000E200DF079FBD8F854004178C8064CBFB06CF06E016800200871BDE8F38100BF74
:20677C00C80F0020D50F0020C90F0020680F0020FEB54D4C494D20680026002807463DD061
:20679C00606900283ED1206900283DD0216938690969884203D197F83F00400923D201A82F
:2067BC0008F0C4FA00282DD00199C1B9206960690DF01CF8022806D0012823D138460122AD
:2067DC000146009203E001200090206921690069B1F93C103246134600F06AFE12E02E482D
:2067FC000CF081FB0EE02069C06840880028FAD02069C06840880128F5D005E028460221CF
:20681C000DF000F8002E46D025483969006888423CD102A808F08AFA48B1029838B12069AA
:20683C0028B9606918B908200AF014FEFEBD08200CF010F997F83F00400904D220460BF057
:20685C0004FE206103E020460BF0FFFD6061B8691449C0434860B8698A6810438860F869C0
:20687C00C04341F8040CF8690A6810430860FC6820460BF095FC20460BF01AFE18B1012069
:20689C0021460BF0C3FC4FF0804101E04FF4806128460CF0B7FFFEBDAC2B0020782A002022
:2068BC00382E00200C1004403C2C002070B516460D460446ADF1A80D0DF04AFB002808BFAC
:2068DC00142000F0888068460021A4220CF0A8FFADF80040434C279B414AE078E1791A406B
:2068FC008DF80400A0798DF8A01000F003030101134301F480721A43384B1340227A00F0B1
:20691C00040001F4C06119430843022A27904FF0000008BF01208DF837000DF065F9402811
