:20000000003C0120E91E010039FB021039FB021039FB021039FB021039FB021039FB0210D7
:1C00200039FB021039FB021039FB021039FB021039FB021039FB021011FB021002
:20003C002DE9F04F0546ADF5FE7DADF1580D9E982E688A9028681F4693460C4617F034FBA8
:20005C004FF000088997014690943046891981428B9140F20D85CDF84C82CDF81C82474674
:20007C008897AF4991910E4692964FF0FF348394879981910F468DF810723E46829607787D
:20009C00252F08BF321C10D0002F00F0F1842968899A0078491C29605946904728680778C8
:2000BC0008F10108252FEFD1819A2868909C401C286011E042F010020AE042F0010207E018
:2000DC0042F0020204E042F0080201E042F0040281922868401C286028680178B1F1200043
:2000FC00F4D0C01EEFD00838EAD0801EE5D0C01EE0D02A291CD001A831460A220FF0C4FA60
:20011C002868017830290BDB01AA3A2908DA0146401C2860097802F8011B01783029F4DA29
:20013C009DF80400B0B101A812F070FC829011E0E41C24F00304241D54F8040C002803D5D7
:20015C0042F00102819240428290214628689091401C2860296808782E2830D1491C296055
:20017C0008782A281FD001A831460A220FF08CFA2868017830290BDB01AA3A2908DA014652
:20019C00401C2860097802F8011B01783029F4DA9DF80400002808BF301C02D001A812F0D7
:2001BC0035FC296809E02968E41C24F00304491C2960241D909454F8040C83900878819E6B
:2001DC004C383AD01C3818D0801E31D0801E04D0083828D0801F21D037E02968491C0878D3
:2001FC0029606C281CBF46F0400046F040060ED146F4807046F4807623E02968491C087847
:20021C002960682805D046F0200046F0200681901BE046F4007046F4007612E046F48050C0
:20023C0046F480560DE046F4005046F4005608E046F4006046F4006603E046F0800046F09A
:20025C00800681902968491C2960097828686E298DF8101200F10100286000F0CE837329C6
:20027C0000F029830DF20120829E859020214FF4FF7201A80FF008FA8598889901700F46CE
:20029C008C970DF5007C8D970DEB06028F973E468E96101DCDF814C29DF810328690642B6B
:2002BC0015DC642B23D0B3F1250000F0F5821C3800F05181001F022840F24D81133816D0EF
:2002DC00093800F04881801E00F02E82F8E1A3F16500022840F23F81001F08D0801F01281D
:2002FC0005D9801F18BFB0F1030040F0E9818399002904D4819820F01000819002E00120E6
:20031C0083900146B3F1580007D017380AD0401E03D0083818BF0A2605D1102603E0C046FE
:20033C00FFFF0F000826702B00F0B380DDF84C92819843F66077CA463840203800F08B80F1
:20035C0020387AD0C03861D0B0F5807047D0B0F5C06036D0B0F5006025D0B0F5805013D0ED
:20037C00B3F1580000F095800C3800F08980401F00F08680801F00F08C80801F00F089809B
:20039C00C01E00F086808EE0B3F1580000F081800C3875D0401F73D0801F7AD0801F78D017
:2003BC00C01E76D07FE0B3F1580072D00C3867D0401F65D0801F6CD0801F6AD0C01E68D087
:2003DC0071E0B3F158002FD00C382DD0401F2BD0801F29D0801F27D0C01E25D063E0B3F132
:2003FC0058000AD00C384BD0401F49D0801F04D0801F18BFB0F1030055D1E41C24F003040A
:20041C00241D14F8049C4FF0000A4BE0B3F158000AD00C3808D0401F06D0801F04D0801F26
:20043C0018BFB0F103003ED1E41D24F007040834A4F1080090E8000634E0B3F1580028D097
:20045C000C381DD0401F1BD0801F22D0801F20D0C01E28D11DE0B3F158000AD00C380FD018
:20047C00401F0DD0801F04D0801F18BFB0F1030019D1E41C24F00304241D34F8042C0EE007
:20049C00E41C24F00304241D54F8042C4FEAE27A07E0E41C24F00304241D54F8042C4FF0D5
:2004BC00000A91469094CC174A465046114350EA040708BF002903D181990C09C0F049810C
:2004DC00642B18BF692B08D1002806DA012752424FF000018D9761EB000085A900910146B3
:2004FC00104632460CF0C4FB8399401C81422BDA9DF81032782B03D0582B18BF702B11D1F3
:20051C00819908090FD3702B08BF7823859803708598401E85903021017085989DF81032DF
:20053C00401E859081996F2B40F013810809C0F0108185984278302A00F00B8130210170F3
:20055C008598401E8590B9E0859930220A708599491E8591C8E71846A0F16101192998BF38
:20057C002038984208BF0126E41D24F0070408349094083C94E8030047F6F07247F6F07EB2
:20059C0002EA114296450FD1919F0A46002412004FF0FF3E14430022024327400EEA0202F2
:2005BC0008BF002A40F0A48047F6F07247F6F07E8C4602EA114296455CD1929F624600247A
:2005DC0012004FF0FF3E14430022024327400EEA020208BF002A4DD1ADA20CCA0EF0BEFB65
:2005FC0022D3002E14BF4621662185988DF80012002EA0F10100859014BF4E216E21017030
:20061C008599002EA0F10100A1F10101859114BF492169210327017085998E97491E859114
:20063C002B2600F8016C8BE7002E14BF4621662185988DF80012002EA0F10100859014BF2B
:20065C004E216E2101708599002EA0F10100A1F10101859114BF49216921017085992D27DD
:20067C00491E8591042600F8017C8199DDF814C28E9669E04FF0004202EA0C02170004BFBB
:20069C000022002A03D0012281F000418E92B3F1410226D0121F1CD0521E13D0521E07D096
:2006BC001A3A1ED0121F14D0521E0BD0521E07D141EC100B81A885A905F042FB9DF810328C
:2006DC00819946E041EC100B81A885A911F0AEFC05E041EC100B81A885A908F065FA81997F
:2006FC0035E041EC100B81A885A903F047FBE5E7002E14BF4E206E2061468DF80002491E97
:20071C00002E859114BF4120612008708598002EA1F10101A0F10100859014BF4E206E20F7
:20073C00087002208E900BE7E41C24F00304241D14F8047C909407B901268F9681998DF83C
:20075C00007221F0020181916046401E85909DF810328598752B00F101022AD06F2B28D0B8
:20077C00782B26D0582B24D0702B22D08E9F1FB17F1E1ED101238D9301F002038D9F8C93B2
:20079C001FB98B0808D32B2100E02D21017085988199521E401E85908C9E374309D1C808A4
:2007BC0007D385982021017085988199521E401E859048080ED2859C8298ADEB040101F25F
:2007DC000121884206DB869F01A8241AE419A4F5FE7400E001AC1146939A20464FF4FF73F0
:2007FC0015F01AFC8F9F859027B1889901708598401C85908699814209D30A46121A20210C
:20081C00401E521C0EF040FF869888990170819840092ED301A8A04232D001A8221A3021DD
:20083C0001A80EF031FF8C9F8D9E374305D18198C00838BF0DF1050007D3207830218DF8FC
:20085C0004000DF1060004F8011B9DF81022782A03D0582A18BF702A02D18199090903D259
:20087C00612A18BF412A0BD1617801703027677006E001A8241A2021224601A80EF004FF1B
:20089C0001A816F011FF8F9F0246D21909E0C046000000000000000078A00188012201AFB9
:2008BC0039808A9B01A859469847B0F1FF3F00F09C808044D4E0839FF0094AD2E41C24F069
:2008DC000304241D54F8049C9094B9F1000F00F08F808298002F869006D4484616F0E4FE3D
:2008FC00B84288BF381C02D8484616F0DDFE044686988442A8BF8694869F3B46B844A342C8
:20091C000ADD700808D23F1B002F05DD899A2020594690477F1EF9D1002C07DD2746899A37
:20093C0019F8010B594690477F1EF8D1869F8198A74240F395804008C0F092803F1B002FA0
:20095C0040F38E80899A2020594690477F1EF9D186E0E41C24F00304241D54F8049C909428
:20097C00B9F1000F44D0002F06D4484615F0C7FFB84288BF839C03D8484615F0C0FF044655
:20099C00829FBC42A8BF271CB844A7420BDD8198400808D23E1B002E05DD899A20205946FF
:2009BC009047761EF9D1002C0CDD2646A9F1020939F8021FC8B2884213D1899A59469047AD
:2009DC00761EF5D18198A7424ADD400848D33F1B002F45DD899A2020594690477F1EF9D12A
:2009FC003EE016F031FA582101604FF0FF383FE0899A93985946904732E043F660703040CE
:200A1C00203824D0E0380ED0B0F5807016D0B0F5C06008D0E41C24F00304241D54F8040CA8
:200A3C00C0F800801BE0E41C24F00304241D54F8040C4FEAE87980E8000310E0E41C24F0A6
:200A5C000304241D54F8040C80F8008007E0E41C24F00304241D54F8040CA0F80080909403
:200A7C00B8F1FF3F04D028688B9981423FF6FDAA7FB0404616B0BDE8F08FC04625007047CB
:200A9C0000B5ADF12C0D029047E302980390B749B74A002310200CF0A1FDB64910204FF465
:200ABC0086020CF09BFD4FF44870B3490090012200234FF44870019010200CF08FFD0620C7
:200ADC00ADF81000AD49002204AB10200CF086FD01208DF81200A94901220DF112031020BF
:200AFC000CF07CFD01208DF81200A44906220DF1120310200CF072FD40F60200ADF81000FD
:200B1C009E49032204AB10200CF068FD03989C4980880880B5480022432113F06BFBB54874
:200B3C000078C01CC1B2B24800680022B5A314F0BCFBB14800780090AE480078001DC1B23C
:200B5C00AB4800680022B2A314F0AFFB0398801D0DF0C6FDBA490978012901DCB3A100E042
:200B7C00B3A100910190A3480078401DC1B2A04800680022AAA314F098FBB14800780128C0
:200B9C0040F3DF82002016F08BFDAE4902680A6080888880AB480DF0A3FD009095480078A7
:200BBC00801DC1B2924800680022A2A314F07DFB012000900920A5490190A34840F6B83280
:200BDC00002310F0F7FBBCE24B20ADF80C00AB48007808B39E48006878B19D49C14809682D
:200BFC0015F0F1FA9A48006815F0FEFFBE490878401E0870964900200860BB4800780090CE
:200C1C007C4800780830C1B2794800680022B7A314F04BFB0BF0C0F877480078002805DDEE
:200C3C00BDF80C0040F02000ADF80C0071480078C01CC1B26E4800680022B8A314F035FB87
:200C5C00BDF80C00BDF80C104FF0FF328243674813F0D0FA75E202984089ADF81800029824
:200C7C00001D03908548007808B379480068F0B17748016803980622083115F021F87449DF
:200C9C009848096815F09FFA71499648096815F0C5FD6F480168887C40F0010088746C4973
:200CBC00BDF81800096808826949002008601420049000208DF81C0000208DF81D0003992F
:200CDC00BDF818000EF060FC8DF81A009DF81A00082801DB15F0A4FE9DF81A00AA4A00210C
:200CFC00000111549DF81A10A84800EB01100DF0F7FC0590059800903E480078C01CC1B2C8
:200D1C003B4800680022C5A314F0CFFA3A480078009038480078001DC1B23548006800225C
:200D3C003BA314F0C2FA049840F00800049032480078082803DB049840F00300049000200E
:200D5C008DF81B0030E09DF81B00B84951F8300005990F2214F068FDA0B99DF81B00012239
:200D7C008240C448002113F045FA18E08961021089180100C5690110F5F901109539011073
:200D9C00983E00209DF81B1001208840C2490968084204D09DF81C00401C8DF81C009DF8BB
:200DBC001B00401C8DF81B00BC489DF81B1000688842C8D80498049A4FF0FF3181430B48AA
:200DDC0013F018FAB64910204FF480620DF11D030CF004FC29480078002800F0B2819DF8AB
:200DFC001D00022800F0AD8108E0C04660200020AC2300202F400020B02300200AF0CCFFAE
:200E1C009FE1C046496E697469616C697A6564004E756D20436F6E6E733A20256400C04680
:200E3C00257320416464723A2025730044657600494400C0525020416464723A20257300D6
:200E5C00BB230020262500203C3C0020CD3601009C3E00204320039000208DF8180002982A
:200E7C008088ADF814000548007838B31D4816F070F80790079808B302E0C046BC2300203A
:200E9C000799BDF81400098A884210D11548079915F099F91348079915F0CAFC0799887C91
:200EBC0020F00100887407984FF6FF710182079816F04DF8079007980028E1D1BDF814006F
:200EDC000DF03CFEBDF814000FF038FF8DF81600B848007808B10AF05FFF9DF816000828C1
:200EFC002CDB29E0E83F0020BD2300204175746F436F6E6E6563743A204E756D6265722039
:200F1C006F66206D656D6265727320696E207468652067726F757020256400C0436F6E6E39
:200F3C006574696E6720617474656D70742063616E63656C6C65640015F072FD9DF8161075
:200F5C00124800EB01100DF0CBFB04900498009093480078C01CC1B29248006800227AA379
:200F7C0014F0A3F99048007800908D480078001DC1B28C48006800228C4B14F096F9002010
:200F9C008DF8170028E0C046E8370020E23700209DF81700254951F8300004990F2214F0AE
:200FBC0043FC38B99DF81700012181403148002213F020F99DF8171001208840364909680A
:200FDC00084204D09DF81800401C8DF818009DF81700401C8DF8170030489DF817100068F1
:200FFC008842D5D870480078002803DD039840F020000390039803994FF0FF3282436C4888
:20101C0013F0F8F86248BDF814100088884240F09880674810F0DEFF93E0C046436F6E6E11
:20103C00656374656420746F20257300841F00200298001D039003980088ADF81000039854
:20105C00807A8DF81A0053480078A8B103984088ADF8120003988088ADF814000398C08816
:20107C00ADF8160003980089ADF8180001208DF81B0004E0741F002000208DF81B00464911
:20109C00102004AA0CF0AAFA4A480078002858D00AF082FE55E0C046781F00207C1F002035
:2010BC0045B600000298039003983C49828804AB10200CF093FA50BB0398C078A8B90DF11D
:2010DC0012000DF00DFBBDF824100090480000EBC100019032480078401CC1B2314800683D
:2010FC0000221EA314F0E1F811E00DF112000DF0F7FA039989780091019029480078401C21
:20111C00C1B22848006800221BA314F0CEF829480078B0B10AF040FE13E00298807800288F
:20113C003FF4B3AC401F3FF496AD401E3FF492AE401EB7D00A383FF47BAF001F3FF444AD94
:20115C00FFE70BB000BDC046257320697320646973636F6E6E656374656400C0557064611E
:20117C007465643A2025732C20636F6E6E54696D656F75743A2564005570646174652046B7
:20119C0061696C656420307825683A20257300C0B2230020B4230020D9570110F9DC01101A
:2011BC002F400020AC230020B02300202C0E000060200020BC23002000B5ADF1340D0190A4
:2011DC0001208DF80800C5E10198807813F09EFCF8E1019840680390B8480078002854D000
:2011FC00B7480078082804D1BA4910200CF0F6F9E8E10398B8498069042214F0E1FC0028BC
:20121C0043D0B94815F09FFE0490049870B10498039906220830891C14F052FD30B9049896
:20123C0015F093FE049004980028F0D1049800282BD1142015F0A4FB05900598D0B10598FB
:20125C00039906220830891C15F098F8039805994078887305980021817405984FF6FF714B
:20127C000182A148059915F0E3FA95490878401C08700AE0B64800780830C1B2B3480068C6
:20129C000022C3A314F011F89CE10398801C0DF027FA0090AE480078C01CC1B2AB48006823
:2012BC000022C3A314F001F803988069002800F089810398806915F097FC83E1C04804213A
:2012DC006FF0040212F096FFA1480078C01CC1B29E4800680022C3A313F0E7FF72E1032011
:2012FC00ADF80C0075480078002837D0BDF80C0040F04000ADF80C007148007808280DDA93
:20131C006F4800780090924800780830C1B28F4800680022B7A313F0C8FF18E06848007850
:20133C0000908B4800780830C1B2884800680022C0A313F0BAFF0AF02FFDA94800780028DB
:20135C0005DDBDF80C0040F02000ADF80C00BDF80C109B48042212F04DFF8CE001984068F8
:20137C0040788DF830009DF83000009078480078C01CC1B2754800680022BAA313F095FFCD
:20139C009DF83000002805DDBDF80C0040F00800ADF80C0092480078002805DDBDF80C009B
:2013BC0040F02000ADF80C00BDF80C108448042212F020FFB948006818B1B848006815F08D
:2013DC0013FC9DF83000C0EB001080B215F0D8FAB2490860B148006810B900208DF83000F7
:2013FC009DF83000AE490860AC480068002800F0E980AA4800680B9000208DF831001DE008
:20141C00A8499DF83120102004AB0CF0E7F80DF112000DF065F901460B980F220CF094FD0C
:20143C009DF83110A04A0B9842F831009DF83100401C8DF831000B980F300B909DF83000A8
:20145C009DF831108842DBDC9DF83100082880F2B9809DF83100012282409448002112F0CE
:20147C00C9FE9DF83100401C8DF831009DF831000828EEDBA6E010F083FEA3E001988078D7
:20149C008DF80E008A499DF80E000001085AADF80C00BDF80C004FF6FF71814200F09280D8
:2014BC009DF80E0083490001085815F07BF98249BDF80C2010200CF091F883E0BC23002004
:2014DC00BD230020019801998078496802F01CFB78E0C04679220210442500200198406836
:2014FC0010F0C8FC6EE0C046E83F0020002016F0D7F8039071490398062214F095F90028B2
:20151C0060D003980DF0ECF8009011480078801DC1B20E480068002258A313F0C6FE039855
:20153C00664902680A60808888804BE008480078801CC1B205480068002253A313F0B5FE77
:20155C005F4910200CF04AF83CE0C046AC2300202F40002001980088401E092832D802A15C
:20157C0051F820008746C046E5110000D9120000FB120000EF1100009314000099140000D1
:20159C00E1140000F914000009150000491500004175746F436F6E6E6563743A20416C6CDB
:2015BC006F636174696F6E206661696C65642100446973636F76657265643A20257300C0C2
:2015DC00602000209DF80800012806D10198406818B10198406815F007FB0DB000BDC046E0
:2015FC00B0230020446973636F766572696E672E2E2E00C04175746F436F6E6E6563743A78
:20161C00204E6F7420616C6C206D656D6265727320666F756E642C206F6E6C7920256420E6
:20163C006D656D62657273207765726520666F756E6400C04175746F436F6E6E6563743A37
:20165C00204E756D626572206F66206D656D6265727320696E207468652067726F75702020
:20167C00256400C02564206465766963657320646973636F766572656400C0465250204128
:20169C006464723A20257300496E73756666696369656E74204D656D6F727900C02300207F
:2016BC007C1F002045970110841F0020741F0020E0370020EC3700200D2B021026250020C1
:2016DC00792202102DE9F84FDFF8C454686884B0019020B905B0BDE8F04F15F0DDBF0178D4
:2016FC00DFF8B0B4DFF8B074DFF8B06401291CBF0229042946F2A81A40F6C41941F64C5868
:20171C0005D0402918BF802900F0158136E215F0E9FA0028FAD00198007808F049F800909D
:20173C0015F0B6FFDFF8781404464878002800F0A58003F025FD15F067F80290002C016889
:20175C000191D1F804A075D000980AF0B5FF022870D00099DFF84CB40A78022A02D0042A5B
:20177C0033D00BE205223270B8B915F08DFF8044DFF83404DFF834246169C4F80880036817
:20179C00DF69137803EB8303FA18D78809FB0789C1F820900068A16801616069C17F01F0AB
:2017BC00EF01C1776069C17F41F08001C1776069C17F01F0F00141F00201C1776069DAF800
:2017DC00081059444162022032E006213170A0B915F05AFF8044C4F808803A68DFF8D0137E
:2017FC0053690A78606903EB02118B8909FB0389C0F820903968A068C8603868007C11F0CB
:20181C0057FC6069C17F01F0EF01C1776069C17F41F08001C1776069C17F01F0F00141F028
:20183C000201C1776069DAF80810594441620420A87013E10199DFF87C030A78802A0BD136
:20185C000823337000780128DAF814001ABFDBF82410097801210AE0072131700078012840
:20187C00DAF814000EBF0121DBF824104978C1720298CB4A8179019891707AE1009800281E
:20189C0010D00199009A0078914207D1022804D004284BD0002014F0D3F9DFE0022802D005
:2018BC00042823D06AE1052030700220A87015F0EBFE0146A068514415F0E2FEA8B915F086
:2018DC00E3FE8044B84AB94F6069C4F808801368DD693B7803EB8303E918CD8809FB058960
:2018FC00C0F820901168A0680861B7E0062030700420A87015F0C8FE0146A068514415F02D
:20191C00BFFE98B915F0C0FE8044C4F808803A68A74D53692A78606903EB02118B8909FBFC
:20193C000389C0F820903968A068C8603868007C11F0BEFB92E09A494878002800F0BA8089
:20195C0003F01EFC14F060FF029001680191D1F804A09349887814F057FF039015F0BCF97E
:20197C0010F0070F06D0A87807F022FF009015F08FFE040077D0019900980AF09DFE0228C9
:20199C0071D000990A78022A02D0042A32D067E005223270A8B915F077FE8044824A83495A
:2019BC006069C4F808801368DF690B7803EB8303F918CF8809FB0789C0F820901168A0685F
:2019DC0008616069C17F01F0EF01C1776069C17F41F08001C1776069C17F01F0F00141F051
:2019FC000201C177DAF8082061696E4882184A62022032E00621317098B915F045FE804477
:201A1C00C4F808803A686A4953690A78606903EB02118B8909FB0389C0F820903968A06854
:201A3C00C8603868007C11F043FB6069C17F01F0EF01C1776069C17F41F08001C177606929
:201A5C00C17F01F0F00141F00201C177DAF808206169544882184A620420A870009888E0FA
:201A7C00002014F0EDF803980299884220D0019950480A78802A0BD10823337000780128A8
:201A9C00DAF814001ABFDBF82410097801210AE00721317000780128DAF814000EBF012198
:201ABC00DBF824104978C17202983D4A8179917001985EE015F010F910F0070F64D0A878A4
:201ADC0007F076FE044615F0E3FD83462078022802D0042825D057E00520307015F0D4FD00
:201AFC000146DBF80800514415F0CAFDB8B915F0CBFD80442C4A2D49DBF81400CBF8088027
:201B1C001368DF690B7803EB8303F918CF8809FB0789C0F820901168DBF8080008610220AC
:201B3C0025E00620307015F0AFFD0146DBF80800514415F0A5FDA8B915F0A6FD8044CBF81F
:201B5C0008803A681A4953690A78DBF8140003EB02118B8909FB0389C0F820903968DBF836
:201B7C000800C8603868007C11F0A2FA0420A870204605B0BDE8F04F0BF020B805B0BDE8F8
:201B9C00F04F002014F05CB805B0BDE8F08F00BFB43F002098980100540F0020C80F00205C
:201BBC00780E0020F0D8FFFF500F0020D80F0020D90F0020CC0F00202DE9F84FDFF870046C
:201BDC00DFF870940178DFF87064002984B04FF01E0A4FF0FF084FF0060B07D0052908D0B3
:201BFC00062900F0D980072918BF082900F01D8215E2DFF84844DFF848742068016801F1BA
:201C1C00080529780A4602F00F03072B17D1A878A8B1E978C80707D50622291D684614F0E7
:201C3C00ADFB2878C0F38018E878810776D500F00100291D1BFB00FB062259441DE011F0B7
:201C5C000F0F1CBF02F00F00062807D002F00F0102291CBF02F00F02012A21D10622A91C54
:201C7C00684614F08BFB2878C0F3801800F00F00012853D1062205F1080102A814F07EFB8B
:201C9C0028784FEAD01B5846FF2847D002A915F0F3FCE8B13868C1694878022818BF03289A
:201CBC0040F0C381306800F10D0102A815F0E0FC002870D03968012088720622607940F01D
:201CDC000400607102A93868001D14F057FB25E0306801788B4521D1411C062202A813F04B
:201CFC00EFFFD8B13868C169487801280AD9801E012813D83168487F20B901F10D0015F0CC
:201D1C00B3FC58B130686279017861F38202411C627106223868001D14F030FB4046FF283A
:201D3C0039D0694615F0A8FC002834D0606901226946083815F094FC00282CD13868C1699B
:201D5C004878012818BF032825D13168684615F083FCFF281FD01AFB00FA306810F80A20CC
:201D7C006369401C00EB0A01A3F1080015F070FC99F8001088420ED03168606951446A462C
:201D9C00C91D083815F060FC3068504406226946C01D14F0F3FA48E1AA4CAB4D20680168C7
:201DBC0001F10807397801F00F00072802BFB8788309012B40F09980002800F09680F87896
:201DDC00C10707D50622391D684614F0D7FA3878C0F38018F878810739D500F00100391DFA
:201DFC001BFB00FB0622594402A814F0C7FA3878C009FF282BD002A915F03EFC0028286845
:201E1C00807A00F08980022818BF032804D130680D3015F029FC002840F0FC80306800F156
:201E3C000D0102A815F024FC002800F0F3802868062202A9001D14F0A1FA607940F00400F2
:201E5C0060710622306802A9C01D14F097FA4046FF2871D0694615F00FFC002800F0A380D0
:201E7C003168684615F0F8FB2A68014650690078FF2900F07D8000281AFB01FA5DD1107CF6
:201E9C0014F0C2FC90F82E11022918BF032901BF336813F80A2001F001018A424CD100F50E
:201EBC009477581C06223946504413F009FF30B906223946654813F003FF00283CD028683B
:201EDC0041693068431C0622C91C03EB0A0013F0F7FE002830D0607940F008006071062216
:201EFC006946384614F04AFA3CE011F00F0F1CBF01F00F02012A1FD10622B91C684614F06F
:201F1C003DFA3878C0F3801800F00F0001289ED1062207F1080167E7022818BF032805D163
:201F3C0030680D3015F0A0FB002890D12868807A002818BF01288AD06CE0316811F80A2063
:201F5C006069491C5144083815F082FB99F8001088425FD03168606951446A46C91D083879
:201F7C0015F072FB3068504406226946C01D4FE000284FD1107C14F047FC06462868406924
:201F9C008278904546D1C11C0622684613F098FE00283FD0607968F3C3006071062269461D
:201FBC0006F5947034E029684A69107890BB087C14F02AFC074697F82E01022818BF0328F6
:201FDC0028D130686A46414615F03AFBFF2821D01AFB00FA306800EB0A01497F012904D068
:201FFC000D30504415F040FBA0B1286841693068431C0622C91C03EB0A0013F061FE48B1D2
:20201C00607968F3C30060710622694607F5947014F0B4F9206801680020087105E00020C5
:20203C0013F00EFE862015F007FB05B0BDE8F08FC80F002029400020680F00208C0A002022
:20205C00500F0020BC0A0020540F0020006E0210F0B505AFADF1640D0A930992089107902C
:20207C00386815900020386007983CC869463CC10DC881E80D00079880690078000A21D3AF
:20209C000798806917901798C0681390179880681490179800798DF85800179840798DF84E
:2020BC0059009DF858002E2807DC9DF859002E2803DB2E208DF85A00FEE1179800798DF8AA
:2020DC005A00F9E107988069D0F8C400139007988069001D149020208DF858007E208DF870
:2020FC0059002E208DF85A00E6E1BDF90C000A998842C0F2EA8108999DF8580091F9001003
:20211C00884213DC08999DF8590091F9001088420CDB08989DF85810149A90F90000401AE2
:20213C00139932F81000091812910AE09DF858109DF85A00149A401A139932F810000918F4
:20215C0012910898401C089012990A984A78BDF908108018814205DD12990A9849784018AC
:20217C000A90A9E102200B9000200C900020119000200D9095E10D9A3868BDF90E108018FF
:20219C008142C0F294810698007830F0800051D100200F901FE012980B9A1199105C8840D6
:2021BC0011F06EFB0E900E98082803DD1198C0F108000E900E990F9840180F9011980E99B0
:2021DC0040181190119808280AD1002011900B98401C0B90FFE712980B9900788842DADCAF
:2021FC000020109020E012980B9A1199105C8840C04311F045FB0E900E98082803DD119895
:20221C00C0F108000E900E9910984018109011980E9940181190119808283ED10020119012
:20223C000B98401C0B90FFE712980B9900788842D9DC32E012980B99085C78B112980B9982
:20225C00085CC0F303100F9012980B99085C00F00F0010900B98401C0B901EE00B98129962
:20227C00401C085C000A0DD300200F9012990B98401C085C00F07F00C00010900B98801CBD
:20229C000B900AE00B981299401C085CC0000F90002010900B98801C0B900F98002800F0D7
:2022BC0081800D9A3868BDF90E108018814279DB0F9801283BDD12990C984978401C814220
:2022DC0035DD12990F9A0C9849788018814204DA12980C994078401A00E00F980E900D9AB1
:2022FC003868BDF90A108018814217DC3879A8B10798406904900C990A9A159B3D680E9ED4
:20231C000C9CDDF828C00D9852185B1992191B180CEB0401521E68460BF02CFD0E990F984F
:20233C00401A0F900C980E9940180C902CE00C9A0A98BDF90810801881421FDC0C9A0A9889
:20235C00BDF90C108018814218DB0D9A3868BDF90A108018814211DC387978B10798079BC7
:20237C000C9D0A993E68159A0D9C40689B8A4919921989B2121992B212F064FE0F98401E0A
:20239C000F900C98401C0C9012980C994078884204D10D98401C0D9000200C900F98002817
:2023BC007FF47FAF109800287BD00D9A3868BDF90E108018814274DB1098012839DD1299EE
:2023DC000C984978401C814233DD1299109A0C9849788018814204DA12980C994078401AF9
:2023FC0000E010980E900D9A3868BDF90A108018814215DC0798006904900C990A9A159BA3
:20241C003D680E9E0C9CDDF828C00D9852185B1992191B180CEB0401521E68460BF0AAFCCE
:20243C000E991098401A10900C980E9940180C902AE00C9A0A98BDF90810801881421DDC84
:20245C000C9A0A98BDF90C108018814216DB0D9A3868BDF90A10801881420FDC0798079B5C
:20247C000C9D0A993E68159A0D9C40681B8A4919921989B2121992B212F0E4FD1098401E09
:20249C0010900C98401C0C9012980C994078884204D10D98401C0D9000200C901098002814
:2024BC0083D112980B99007888423FF764AE12990A98497840180A90089890F9000020B1DA
:2024DC000998411E099100B10FE619B0F0BD70472DE9F04F0446DFF80083A0780027ADF19D
:2024FC001C0D0A280FDC0A2800F0AD80002800F0B581401F00F0A381401E00F06F81C01E4E
:20251C0000F05181D5E1DFF814930B3800F08380401E3CD0801E0ED0801E40F0CA814546E9
:20253C002A7813F06BFD002800F054811046042108F09EFF4EE1607806281CD1A08815F026
:20255C0077F8061C17D0C44809300078401E0ED0401E07D0401E0ED1394640F209400A4632
:20257C0002F002FDA088052115F05EF803E0A08871790FF033FA48460068002800F02A81CB
:20259C004368002B00F026816278022108E1A088257B814615F04CF8061C00F01B8115F041
:2025BC003FF8002840F016813B4600937179B01D0DF1120201F0010109F064FFF0B99DF86F
:2025DC00120013F01DFB024605F00C00001F0AD0001F04D0001F08D1100904D216E012F09E
:2025FC00090F02D112E0500810D3012000909DF81210B37C48460EF09BFCEBE045466D1C0E
:20261C002878002804BF0521484619D0717948460FF0E4F9DEE015F003F8002800F0DA80F2
:20263C004846006850B1076847B1206900906189227B637BE01C3C46A047CBE06089012187
:20265C0014F0EAFFC6E06078B946002840F09680A0794008C0F0928002A83946082214F00C
:20267C007AFCA08814F0E4FF071C0AD145462A7813F0C4FC002863D01046042108F0F8FE07
:20269C005EE06069002851D0064649460622113013F08CFD4D4620B330464946062213F068
:2026BC0085FDD8B9307C06F1110ACB464E4600F001000590761CF6B28AF80060CDF800B071
:2026DC00059950464A464B4609F0DCFE10B9002EF0D103E016B1012D01D004E001254E46B7
:2026FC006661012D22D0606950B30646307C062206F1110100F001008DF80E0002A813F0B1
:20271C003DFE787906F11105012805D107F10C00B91D062213F032FEB81D2946062213F0C1
:20273C002DFE307C40F00200787109E07879B91D062200F001008DF80E0002A813F01EFE66
:20275C00A1799DF80F20C1F3800010438DF80F00080905D39DF80F0040F008008DF80F000B
:20277C0002A8214603F016F95FEA000903D1A08810F07AFC02E0A08812F012F945466869F3
:20279C0040B3436833B3A088627801219847607800BBA07940081DD3686903214A46436882
:2027BC00A088984716E03B460093E178201D0DF1110201F0010109F065FE58B99DF811102F
:2027DC00062004F10C0211FB00F025300421C0B212F000FF01276CE02C1C0020A08812F0C5
:2027FC00DFF814F015FF002863D14446207B012816D0607B01280DD01F343D4614F8010F6B
:20281C00012803D1284608F035F927706D1C0A2DF4DB0EE00DF0F7FE67730AE0401C0020C5
:20283C0013F093FE394604F120000A22217314F092FB502012F0BAFE10F034F939E06078BB
:20285C00002836D1E0786289237B211D00F0010008F030FD2DE0C0462D1C0020607840BBA9
:20287C0014F0D2FE054614F0CBFE044614F0C4FE8DF8100010212A46022012F0ABFE03201A
:20289C001021224612F0A6FE0420012104AA12F0A1FE9DF81000012803D09DF810000328D7
:2028BC0007D1012014F0FCFE02460620014612F091FE384607B0BDE8F08F70472DE9F84F52
:2028DC00DFF800830F460646F80B80F08181BA4DBE4C2878B90F80F01C81B90880F0108124
:2028FC00DFF8D892DFF8D8A2DFF8DCB2F90A80F08580390B54D2380907D2F80FC0F09E81F3
:20291C0027F080470EF0C6FC98E114F0F6FA054612F042FF00283DD012F0ECFB002839D0B3
:20293C004C4603202070C94814F0DFFA284614F05FFE0AF04FFA0220002112F01BFF0220B5
:20295C0011F078FF112009F08DFAC148007820B955462868403014F0E2FABE48007810B916
:20297C000E2009F07FFA607B20B100206073052011F060FF002041462070B74AB1F91C0079
:20299C00B1F91E106260884214BF022007200DF091F802E0284614F02BFE27F00807B1E7DA
:2029BC0020B1042011F046FF0020287055462E6811F08EFF40B1F0696FF4807100224FF04A
:2029DC00007384463046E0475E46306858B12068006B8047326829680024801AC860C868C1
:2029FC003460000BC8609D489D49002214F08DFA4C4627F400670220207083E714F07DFAD1
:202A1C00064612F0C9FE002840460068009071D000286FD048464FF0040880F8008091498C
:202A3C008E48002214F071FA304614F0E1FD874814F05BFA2068006B804701242C705E4674
:202A5C003060404611F010FF009800695546416A2860C90804D3016A00220B464146984779
:202A7C0020460EF0E7FB2868447508F08BFF2B68D3F8088040F60A0CACF10700421C45466A
:202A9C0000E035466E6836B131888C4503D0884218BF8A42F5D1002169606E7B64F303063F
:202ABC006E73009EF6683688B04219D0B24217D01E8DBEB1D96203F12800418093F8342098
:202ADC0061F3030283F8342093F8352064F3030283F835206860687B61F30300687301E0E8
:202AFC00CBF80010404613F083FF0146204612F041FE02E0304614F07BFD27F480679DE09B
:202B1C000BF05EFD41460831086808B927F0020794E0554A116841F08001116020B104208E
:202B3C0011F088FE0020287014F0E7F98146606D0068014604208847D8B1307DC8B14B48DE
:202B5C000568B5B120683469006B8047401B30613069000B30613069A04203D2001940085D
:202B7C003061306940F6C41181422CBFB0F5967F3161484614F03CFD11F0AAFE88B1F06904
:202B9C006FF4807100224FF0007304463046A04741460868002808BF47F0020701D00EF055
:202BBC0079FBB06900214FF0806304460A463046A04727F0005741E0013F0020403F0020A4
:202BDC00F03E0020843C0020F83E00208C01001014F093F9414618310E685EB306F12801B1
:202BFC0091E80C004FF0E0450A241D4004EA020108BF00291ED106F1280191E8300006F1B5
:202C1C00280393E8060006F12803AA43A14383E8060014F0EDFCB16871B1002D08BF002C40
:202C3C000AD03069B6F93C10B2682B4616462246B04701E014F0DCFC27F480471FB10C4801
:202C5C00394614F074F9BDE8F88FC046F43B0020003F00206E970100B1A20000403D002092
:202C7C00E9BC00003D5B0100CC210840F43E0020E43A00202DE9F84FBC4F0446386808B922
:202C9C00072070E1C07A012804D0042011F0BCFE012801D10C2066E1DFF8D48298F800005F
:202CBC00092818BF0A2804D00B281CBF0C280D2801D1212057E1002C05D0207810B10128A5
:202CDC0014D102E0E01C00F0B180A078002818BF012803D0022818BF032807D160780028DD
:202CFC0018BF012804D0022818BF032840F09E80607A10F0050F75D04FF0000CE64640F68A
:202D1C00774240F67B4343F6FD794FF0010A607A0AFA0CF108422CD004EB0E1041890D1FCD
:202D3C004D453EBF85892E1F4E450CD2A94222BF018BC58AA94279D3C1898D1F9D423EBF6C
:202D5C00058AAE1F9E4271D28D426FD3458AB5F5FA7F6BDA808AA0F10A0696423FBF6D1C86
:202D7C0049006943B1EBC00F60D20EF101005FFA80FE0CF1010C5FFA8CF00228C7DD386881
:202D9C004169487A022804BF002012F059FF38684461617A062977490CBF012000200870B1
:202DBC0014F022FC5FEA000908BF09200CD0396899F806000874E01C07D0A278E11C4020B9
:202DDC0009F0DEF908B10B20CDE009F16101484614F006FC09F12C05A87B012803DC4846A2
:202DFC0014F0FAFB22E039686078DFF88CA1DFF88CB1634E88726078002818BF012807D1A8
:202E1C00C007386854BF594651460622001D2CE0316801F10D0014F027FC90B16078C107F5
:202E3C0054BF5946514614F0D3FB08B912209AE06078C107386854BF594651460622001D20
:202E5C0004E030683B68C11D0622181D13F096FA6078316800F00100087060783368C10754
:202E7C0054BF594651460622581C13F087FA207838BBA17889F82E1109F5947A0622E11C38
:202E9C00504613F07BFAA1783068E21C01F0010114F0D6FBFF2814D0A17841F0020189F8B8
:202EBC002E111E21326848431118487F48B901F10D0014F0D9FB20B906223249504613F076
:202EDC005DFA14F081FBC9F8280014F079FBC9F8240004F11001274800780001095AE980FF
:202EFC0004F11401095A69812044408A28813868417C297000200221A970A88014F05CFBB3
:202F1C000C2290FBF2F20C2101FB1200401DE873042009F00BF839681B4A086042601B4A70
:202F3C0082611B4A42610120C87299F8060014F03FFB98F80010A9B9164A107848B1164918
:202F5C00086814F031FB38680068816941F4802181613868007C10F0ABF8062088F80000A6
:202F7C00FEF7B0FB0020BDE8F28F00BF540F0020C80F0020D90F0020480E0020400E00202A
:202F9C00680F0020006E0210040C00200200808015310100880E00206C0F00202DE9F04FDF
:202FBC000C46A00687B04DD5A94D2868417E11BB0C2014F0F5FA2A68106A28B100210170FD
:202FDC002868006A02F0E6FA2868016A00291CBF888800280AD001220A70202029684969D8
:202FFC0014F0DAFA29680120487628E00021072014F0D6FA23E0022101760D20002114F05A
:20301C00CFFA2968002048762868016A4A78022A0ED1C0694078002818BF022804D18D48E0
:20303C00006814F0B5FA03E08B49086814F0ACFA2868006A0178012908BF02F0ABFA84F019
:20305C00200001E1E0070BD513F012FD28B1002181608248006800B1804784F00100F3E0AC
:20307C0020077F4D40F181807E4E3068007C13F0CBFB0746306897F82E81017C4FF0000A7D
:20309C0007F59479D346FF2904BF002012F0D8FD08F001008DF80000014628684A4614F027
:2030BC00CFFAFF2830D01E214843019049469DF8000014F0E1FAA8B128680199425C42F053
:2030DC000208421C02EB010908F00102084487F82E2100F1070A0622494607F5947013F0A4
:2030FC004DF911E09DF80000494614F071FA58B1286801990844417F012903D00D3014F06D
:20311C00B3FA08B148F002083068807A022818BF032807D128680D3014F0A6FA10B928688B
:20313C0000F1070B002106914346F88E000905900022B98E0491788ECDF808A040080390BF
:20315C00CDF804B0CDF800900020B97914F018FAD7F89C0144498842B8790CBF002101211B
:20317C0014F00AFA84F008006EE0E00610D500200690002100220023029005910492039326
:20319C0001910092022014F0FBF984F010005BE0E00413D52868C11D0D3014F0E9F933483E
:2031BC004268334800784FF4805110F011F810B18E2014F0D9F984F4805045E0A00505D508
:2031DC0013F01EFD2B4901200860FEE7610504D505F0F9FF84F4806036E0600405D581205A
:2031FC0014F0C2F984F480402EE0A0042BD5224D286810B1002012F023FD4FF0FF30286012
:20321C0000201E4D14F0ACF9296851F8202F684690471B48016B426B00910192C06A2D6851
:20323C001849194A02910392ADF810006B462E68164A17491748B0471749086004F0A0F820
:20325C0084F4005000E0002007B0BDE8F08F00BF500F0020700F00206C0F0020480F0020C0
:20327C00680F0020540F00204DE50110880E0020C70F00207C052043380F0020200F00208F
:20329C00241F00206D6A01007D6A0100EC0A00200C240020280800201C0F00202DE9FE4F8B
:2032BC000D46074628687C68BE6800283AD013F024FED4F8BC1081460120019008294FF0E0
:2032DC00000088BF0198A968084202D16968084205D0019880F00100C0B201281DD1D4F875
:2032FC009400B8B9C4F89450C4F898500020C4F8A4000146C4F8A81094F8D030C4F8AC102A
:20331C00002BC4F8B0100CBF01980520D4F89810087411E094F8CC0038B9032028744846EA
:20333C0014F066F90020BDE8FE8FD4F898004561C4F8985006232B74D4F89800002141611F
:20335C0094F8D000012809D1022294F8CF308A49E06984F8D020194310F0C6FD686810F0CC
:20337C00704F06D128B1042011F07EFA062011F07BFA022011F078FA94F8CC00DFF8FC8148
:20339C00002840F08A80F0692968884240F2858094F8CD0020B1D4F8C000B0F1FF3F7CD1E2
:2033BC00484614F025F9A868B246002814BF071C04F1C8076868031C14BF1E1C04F1CA0696
:2033DC00D4F8BC0009282CBF4FF0020BDDF804B0DAF80000D5F800904168B9F1000F41F096
:2033FC000201416008BF191C32D04146A1F11008D4F8BC10092910D3D8F800104A683188E6
:20341C009047D8F80000C168DAF800000A4669469047BDF8000038800FE0D8F800104A682A
:20343C0031789047D8F80000C168DAF800000A46694690479DF800003870AB6803B15F44A8
:20345C00696801B15E44DAF80000B9F10109CFD1D4F8C450C36800221D4218BF019A102DCA
:20347C0018BF82F00102002AF4D111F0704F06D129B1062011F0DEF9042011F0DBF902206B
:20349C0011F0D8F9D4F89410002008740746C4F898703E46C4F894606BE0D4F8AC00002802
:2034BC0040D1D4F8B00000283FD1307913F027FD4546D4F8A0002A6831694068526800686E
:2034DC0091FAA1F1B1FA81F1134602229847D4F8A0002A68716940685268006891FAA1F17B
:2034FC00B1FA81F1134602229847307913F001FD307913F006FD2046314604F029FB0021C8
:20351C00D4F89400C4F8B4100068B0F5806F03D92046314604F01CFB3168486840F0020074
:20353C00486006E0D4F8B00018B92046314604F00FFB3168486940F001004861484614F003
:20355C0057F894F8CC00A0B9D4F8C01004F17405284613F0CBF960B1D4F894000321017406
:20357C00384604F0E7FD2846002113F0BFF9002001900198BDE8FE8F00000780D4010010A7
:20359C0000B5ADF12C0D0190A4480290A348039000210A2204A80CF077F800210A2207A896
:2035BC000CF072F8002104220AA80CF06DF801989F494288012310200AF010F8002800F076
:2035DC00DD800198407816280DD101980079009099480078401CC1B29648006800226BA3C5
:2035FC0011F063FECAE0019800790B2807D001980079012869D10198007A0A2865D10198FE
:20361C00007901280DD10198007B00908A480078401CC1B287480068002261A311F045FEB0
:20363C00ACE00198C06800788DF828000198C06840788DF829000198C06880788DF82A006D
:20365C000198C068C0788DF82B000AA9096802A80160029810F092FF71A20CCA05F018FD58
:20367C0071A20CCA06F09AFF0CF01AFE00EE100A8DED030A029810F081FF02460B4604A8B4
:20369C004BA110F0BDFA039810F078FF02460B4607A849A110F0B4FA04A800906648007817
:2036BC00401CC1B263480068002245A311F0FDFD07A8009060480078801CC1B25D4800688C
:2036DC00002242A311F0F1FD58E001980079132807D001980079012826D10198007A1228FD
:2036FC0022D10198007901280DD10198007B009051480078401CC1B24E480068002236A325
:20371C0011F0D3FD0CE04D48007800904A480078401CC1B247480068002233A311F0C5FDA8
:20373C0047480EF057FC29E0019800797E280DD10198007A009040480078401CC1B23D48F7
:20375C00006800222DA311F0B0FD17E0019800797F280DD101980089009037480078401CB2
:20377C00C1B234480068002228A311F09EFD05E03448007810B1019803F02EF801990198CE
:20379C000979083013F0E8FE0BB000BD415454205273702064726F7070656420256400C03D
:2037BC0052656164204572726F7220256400C046252E336600C046C0252E326600C046C035
:2037DC005774284B67293A20257300C050726963653A20257300C046577269746520457280
:2037FC00726F7220256400C057726974652073656E743A2030782530327800C0464320564C
:20381C00696F6C617465643A202564004D54552053697A653A20256400C046C0000000006D
:20383C009A9999999999B93F0000000000804440D54D0210AC2300202F400020BA2300202A
:20385C00A8200020B52300202DE9F841984C994F25789948994B9A4A9A490D2D85B041F286
:20387C00064600F2C280DFE815F0C600C000C000C000C0000E00C900C0005900F700F7003C
:20389C0019011901AA0090494C88148014F47F4FF9D0022C036023D94FF40062A41A16D078
:2038BC000A3C012C13D940F6F632A41A032C15D9A41F13D0E41E11D040F2F732A41A0FD0D3
:2038DC00641E0BD0E41E09D0641E012C0DD88A7B4E80252A0CBF2722521E8A737B4911E0A8
:2038FC00002012F0ADF985204FE0002012F0A8F984204AE08A7B4E80252A0CBF2722521ED9
:20391C008A737349016042E0002012F099F985203BE0002012F094F9842036E06D498C78B8
:20393C00FF2C68D003606C4B1B681C2111FB04F19D1C6D5A158015F47F4FF4D04FF40064D6
:20395C002D1B664A14D00A3D012D14D940F6F6342D1B14D0AD1E012D84BFED1E012D0ED925
:20397C0040F2FF342D1B0AD06D1E012D03D908E041F2024401E04FF4A0549B1C5C520260CF
:20399C0005E0002012F05CF9852013F055FE3878012107F06DFD2EE0092D1BD150490A6846
:2039BC005089002800F07F804E49087813F0D0FD0021002013F0C8FD002020701BE0488890
:2039DC001080022807D94FF4A052801A03D040F20442801A67D1887B801CC2B2B52AA8BFEC
:2039FC00662088730020488005E0002012F028F9842013F021FE06B0BDE8F0813A494C8831
:203A1C00148014F47F4FF9D0022C03607FF67CAF4FF40062A41A1AD00A3C012C17D940F640
:203A3C00F632A41A032C7FF66CAF241F12D0A41EF9D0E41EF7D0641E0CD040F2F632A41AD6
:203A5C00E4D0641EEFD0E41EEDD0641E012C7FF651AF5EE7254955E74888108010F47F4F51
:203A7C00FAD0B0F5A05F97D041F6040290421AD11F4A204C92E8085002A81F4A80E80850E1
:203A9C000023CDE9002324681C4854F85C8F00681B4B02AAC0471B490880ACE74888108087
:203ABC0010F47F4FFAD0002012F0CAF88520A0E7C80F0020C70F0020480F0020756B0210E8
:203ADC009A0F0020940B0020E80B0020B51701107D1D0110780E0020980E0020BDE9001085
:203AFC00440F0020CA0F0020040C002071A500100C990100200F0020020000801C0F002026
:203B1C0083250100880F002000B5ADF12C0D01918DF80800019880788DF8090000208DF8BA
:203B3C000A009DF8080050B98F480078401CC1B28C480068002263A311F0B7FBC0E09DF84F
:203B5C00080001286CD19DF80900002848D186480078401CC1B28348006800225DA311F091
:203B7C00A4FB01988149028803AB102009F036FD002842D19DF80D00022803D09DF80D0017
:203B9C0003283AD105A8002106220DF09DFE002833D10DF10E000AF0A3FD009072480078B1
:203BBC00C01CC1B26F48006800224EA311F07DFB019800880FF0ECF98DF824009DF8240088
:203BDC00082801DB12F02CFF9DF82410684800EB01100DF10E010A680260898881800CE03C
:203BFC009DF80900009060480078401CC1B25D480068002240A311F058FB5E4910204FF40C
:203C1C0080620DF10A0309F0E9FC5B480078002856D09DF80A00022852D108F0BDF84FE08C
:203C3C009DF8080002282CD19DF8090050B94E480078401CC1B24B480068002233A311F02C
:203C5C0034FB0CE09DF80900009047480078401CC1B244480068002231A311F026FB45498F
:203C7C0010204FF480620DF10A0309F0B7FC4248007828B39DF80A00022821D108F08CF808
:203C9C001EE09DF8080003281AD19DF8090050B935480078401CC1B232480068002226A31F
:203CBC0011F003FB0CE09DF8090000902E480078401CC1B22B480068002224A311F0F5FA5E
:203CDC000BB000BD50616972696E6720737461727465640050616972696E672073756363D7
:203CFC00657373004164647220757064617465643A20257300C046C050616972696E672039
:203D1C006661696C3A20256400C046C0456E6372797074696F6E207375636365737300C03E
:203D3C00456E6372797074696F6E206661696C65643A20256400C046426F6E6420736176E1
:203D5C0065207375636365737300C046426F6E642073617665206661696C65643A20256409
:203D7C0000C046C0AC2300202F400020F9DC0110E237002045B60000BC2300202DE9F04F75
:203D9C0006460020ADF17C0D1B9190A4009094E80C0058EC107B414638460BF022F80FF292
:203DBC003C290CD98BA494E80C0038460AF0D6FF05D999E80C000AF0D1FF02D109E094E82C
:203DDC00800148EC107B68460DF01CF80098401E0090307BB5680024A0F14101B5F1FF3F9F
:203DFC001D9108BF0124A24641280CBF6DA072A01E9030208DF8080099E80C0041463846B5
:203E1C000AF0ACFF38BF88F0004899E80C0041460AF0A4FF0DD048EC107B01A80CF0F2FF47
:203E3C00019848EC107BC0F1010006F09FF858EC107B414638460FF0EFF983460DF1090143
:203E5C000EF01CFA0446584611F0CFF80B4602464146384602F09EFD0FF2881B0DEB0402B5
:203E7C001C940746BAF1000F02F1090458D16D1C15D09BE80C0006F091FB884681460FF033
:203E9C00CBF91E99095C04F8011B11F0AEF80B4602464146484602F07DFD6D1EE9D11D9F4C
:203EBC00641E002F14BF44A53EA52178284612F06DFB401B082838DB27464FF000097D1E37
:203EDC001D98002814BF0FF2F0080FF2D8082978404612F05BFBA0EB0800401C1028B4BF23
:203EFC0018F800103021102829701EDB6D1E07F8019DE5E79BE80C00384606F04FFB0D46D7
:203F1C0007460FF089F91E99095C04F8011B11F06CF80B4602462946384602F03BFD074621
:203F3C0099E80C000AF01AFFE4D10025307B2570412814BF702150211B9A00980EF0C1FA67
:203F5C00B068B0F1FF3F05D10DF1090013F0ACFB401EB0601C991B9B0DF109040246204635
:203F7C000FF02AFF3168B0682A4601F00801084318BF01221C991B9B20460CF0ECF8307B41
:203F9C00412814BF782158211B980268531E03601170016830274A1E02601FB00F70BDE8C8
:203FBC00F08FC0463031323334353637383941424344454600C046C030313233343536375C
:203FDC00383961626364656600C046C0000000000000F07F000000000000F0FF00000000DB
:203FFC0000000000000000000000304000B5ADF14C0D8DF8060000208DF807008F4900205A
:20401C0008708F4800789DF80610884202D18D48007801E08A4800788DF808009DF80800D3
:20403C000BF012FF854908709DF806002422002111F01EF80420ADF800000A20ADF802005F
:20405C0081480088ADF80400D0E07C480078002840F0C980BDF80400C01FADF804009DF8E7
:20407C000600BDF8041003AA05F054FDBDF81A00ADF81C00BDF81C00C01DADF81E00BDF8AC
:20409C000410BDF81C00001D884203D89DF81600962803D001208DF8070002E000208DF8ED
:2040BC0007009DF81700400840D29DF8170080083CD39DF80700002838D101208DF82200FF
:2040DC00BDF81C10BDF80400401AADF820009DF81520BDF81C10BDF820000CF099FD8DF874
:2040FC0022009DF82200C8B99DF80800BDF82010BDF80020BDF81E3009F08AFEBDF81E108C
:20411C00BDF800004018ADF80000BDF80000B0F5005F0BDD49490520087007E001208DF874
:20413C000700BDF80400401EADF804009DF8070038B9BDF81C10BDF80400401AADF8040072
:20415C0054E000208DF8200043E0BDF80400BDF802102038814201DA202004E0BDF80210C6
:20417C00BDF80400401AADF82600BDF80400BDF82610401AADF804009DF80600BDF82630F8
:20419C00BDF804100AAA0FF091FEBDF82600ADF82400BDF8240000281BDDBDF824006844D6
:2041BC0090F8280096280BD101208DF82000BDF82410BDF804004018401CADF8040008E0EC
:2041DC00BDF82400401EADF82400BDF824000028E3DC9DF8200048B9BDF80200BDF80410CD
:2041FC008842B2DB02E04FF0FF3024E0BDF80200BDF80410884205DABDF80000B0F5005F16
:20421C00FFF623AF9DF808000CF026F90B48007810B14FF0FF300EE0BDF800000A4908808B
:20423C009DF806000BF010FE04490870BDF80000C0F5005000B213B000BDC046633E002046
:20425C005C3E00205D3E0020603E002000B5ADF1240D009080487F49007808707E4800783D
:20427C00032840F0F2807C490020087079490020087001A812F0A0F901A8002110F012FE80
:20429C007649086000208DF81D0075490020087010F004FF009900200EF0EAFD7149086000
:2042BC0070487149006812F07BFD71486E4900680968B1FBF0F06D4908706C486D490078A9
:2042DC00401C08706A480068B0F5005F03D16A480068800B05D16049012008705E48007821
:2042FC00B5E06048006828B95B49012008705A480078ACE05D4800788DF81C006FE09DF897
:20431C001C00002108AA04230FF0D0FD9DF82000A52845D19DF82100FE2841DC9DF8230056
:20433C0096283DD14E48007840B99DF81C004C4908709DF82100514908704BE04F499DF8B0
:20435C0021000978884207DA4C480078FE2803D09DF8210001280DD148499DF8210009786A
:20437C0088420EDD4548007801280AD19DF82100FE2806D19DF81C000BF066FD35490870AB
:20439C0028E0374800780BF05FFD324908709DF81C00334908709DF821003849087019E06B
:2043BC009DF8200024280BD19DF81C008DF81D003248007870B99DF821003049087009E006
:2043DC009DF82000B72805D09DF81C000BF03CFD204908709DF81C00401C8DF81C00254877
:2043FC009DF81C100078884289DA1D480078D8B99DF81D0038B91D4800780CF02DF82049C3
:20441C000420088021E09DF81D00154908709DF81D004FF400510AF07FFA194908809DF813
:20443C001D00FFF7E3FD10E09DF81D0028B19DF81D000BF009FD07490870094800784FF46B
:20445C0000510AF069FA0E4908800248007809B000BDC046633E002020250020643E00208D
:20447C005E3E0020583E0020783F00205C3E0020803F00205D3E00207C3F0020623E0020E8
:20449C00603E002000B5ADF1140D029001208DF80C0097E00298FCF7F3FA9FE00298FFF78A
:2044BC006FF89BE002980AF029FE97E00820002103F030F892E0029804902DE00498807827
:2044DC001A280AD17C480078401CC1B279480068002244A310F0E9FE80E0049880780090FB
:2044FC0075480078401CC1B272480068002249A310F0DBFE72E00498808800900498807879
:20451C0001906D480078C01CC1B26A480068002247A310F0CAFE61E004988088A0F20640C7
:20453C0000285BD041F62C41401AC7D0E3E702980490049880780C2850D10498C07878B199
:20455C00049880880DF0F2FD00905B480078801CC1B25848006800223EA310F0A6FE3DE029
:20457C00049880880DF0E2FD00900498C079012801D144A00CE00498C079022801D143A0BB
:20459C0006E00498C079032801D142A000E043A0019049480078801CC1B2464800680022E1
:2045BC0032A310F082FE19E0029840780E383FF479AF401E3FF47FAF401E3FF477AF2E38C2
:2045DC00B5D00BE0029800789138EDD0113805D00E383FF463AF20383FF45CAF9DF80C00D7
:2045FC0005B000BD504859204368616E6765206661696C7572652C207065657220646F657E
:20461C0073206E6F7420737570706F7274207468697300C0504859205570646174652053DE
:20463C0074617475733A2030782530327800C046556E6B6E6F776E20436D64205374617446
:20465C0075733A203078253034783A3A30782530327800C025733A20504859206368616EDB
:20467C006765206661696C75726500C025733A20504859207570646174656420746F202558
:20469C007300C04631204D62707300C032204D62707300C0434F44454400C046556E657839
:2046BC00706563746564205048592056616C756500C046C0AC2300202F40002000B5ADF1A4
:2046DC00140D7148714908F02DFB724812F060F86F49086000208DF808009DF8080008285C
:2046FC0015DA9DF808006C4A4FF6FF71000111529DF80800694A0021000111509DF80800D3
:20471C00401C8DF808009DF808000828E9DB644809F0E2FA63480022152363490090102011
:20473C0008F05CFFFB20614900901B224FF4A47344F268200190102008F050FF5C49102083
:20475C0008F04CFF5048017850200EF0A1FE59490246102008F042FF574910204FF0FF3249
:20477C0008F03CFF554910204FF0FF3208F036FF4548017850200EF08BFE51490246102070
:20479C0008F02CFF02208DF80C0000208DF80D0000208DF80E0001208DF80F0003A84FF41F
:2047BC008062012347490090102008F017FF0DF10D0040F20242012342490090102008F091
:2047DC000DFF0DF10E0040F2034201233D490090102008F003FF0DF10F0040F2064201231F
:2047FC0038490090102008F0F9FE3749374A102008F0F4FE364910200022002308F0EEFE7A
:20481C002148017850200EF043FE32490246102008F0E4FE1C48017850200EF039FE034653
:20483C002D482E4900780822009000200190102008F0D4FE4FF0004000210CF079FE28490F
:20485C00086028484FF0FF3200210FF0D3FC24482449254B006805220DF0A6F923480178AD
:20487C001F480068002202A310F01FFD05B000BD3D3D3D3D3D3D3D3D3D3D3D3D3D3D3D3D28
:20489C003D3D3D3D00C046C08C3E0020903E0020943E0020843F0020E0370020EC3700201B
:2048BC009967010028960100F12B01000D3D0210397F0110F16C0210F95801003D5D01007E
:2048DC002D6D0210854F0000AD5E010088240020111C0210D96C0210BB2300203966000031
:2048FC00AC230020602000202D5F00002F4000202DE9F8436C4C6D496D4E20700020086060
:20491C0009216C4801700D21418040F20121818069486A490860377869480770FF2F71782E
:20493C00417008BFFF29B2788270F378C370357905717679467114D1FF2A08BFFF2B10D157
:20495C00FF2D08BFFF2E0CD15E490A7802704A7842708A788270CA78C2700A79027149790F
:20497C00417159490278594D594E5A4F0A7042784A7082788A70C278CA7002790A71407952
:20499C004871FF2028706870A870E87028716871002051490880F06B504940780870F06B10
:2049BC0001784F480170F06B4E49807808704E49F06BC06C08604D49F06B90F83C00087045
:2049DC004B49F06B90F83D000870F06B4069017948484A1E0270F06B4749C0783870F06B81
:2049FC008069086008B911F02BF9F06B4349C069086008B911F024F912F0A2FDF06B404988
:204A1C00006A086008B911F01BF9F06BDFF8F480406AC8F8000008B911F012F9F06B3A4917
:204A3C00806A086008B911F00BF902F065F907280BD106F0AFFC20784FF4804106F018FD9F
:204A5C00BDE8F243002011F0FBB8304801688847D8F800100A6881469047D8F8002052F8B2
:204A7C00041F00208847F068294A0188387801431180484627490A6890470C21264812F04B
:204A9C005BFD284612F054FD12F04EFD2348002101604FF6FF7181804FF400512078BDE820
:204ABC00F44306F0E5BC00BFC70F0020380F0020D04F0050700E0020B63F00503C0F002033
:204ADC00400E0020E8120050500E0020480E002098980100C40F00209E0F0020C60F002028
:204AFC00D40F0020C30F0020FC3F0020294000202A400020CB0F0020200F0020240F00209B
:204B1C00280F00202C0F0020300F002090230020A00F002094230020FC0D0020800E002018
:204B3C002DE9F0470646B5682968C8697468086240083CD312F0E1F90346D4F8940060BBA4
:204B5C002968486820F0020048602968486A20F003004862D4F8A0002A6941686F6909684D
:204B7C0047EA0200C862D4F8A0006E6941682A69096846EA0200C1F804052968486920F086
:204B9C0001004861286801210162284610F0BEFC184612F02DFDBDE8F08703210174184675
:204BBC0012F026FD304603F0C5FABDE8F087D4F8A00041682A696E6909684FF00008022710
:204BDC00C14646EA0200C1F80405D4F89430002B00F0A780D4F8A0002968D5F814C04068A6
:204BFC00D4F8B460D0F800E066B904F1AC06B1F1804F0CBF4C4A4D4AB1F1804F0CBF4C4812
:204C1C004C480BE004F1B006B1F1804F0CBF4A4A4A4AB1F1804F0CBF49484A48DEF804A50C
:204C3C001AEA0C0F11D0806810F0070F0DD1D3F800A0D4F8A400824507D15B692BB9486AA8
:204C5C0020F002004862CEF804C5906810F0070F64D13068002861D012F04FF98246D4F8DB
:204C7C00B4303168D4F8A800002B0844C4F8A8000CBF20204046C4F8B400C6F80080D4F841
:204C9C009410D4F8A4200868904240D8D4F8A82090423CD881F81080D4F89C0004F1400644
:204CBC0030B9D4F89410C4F89C10D4F89C0007E0436953BBD4F894104161D4F894104069E3
:204CDC004969C4F89410C0F81490D4F8B40000280CBFD4F8AC00D4F8B000C4F8A400D4F8B7
:204CFC009400C4F8A88028B92968486A20F00300486203E02046294602F02AFF504612F0D4
:204D1C0077FC304612F015F908E01846D0E72046294602F01DFF504612F06AFC7F1E7FF490
:204D3C0054AFBDE8F087C04630180020001900204018002010190020301A0020001B00202B
:204D5C00401A0020101B00207C490878042800D870472DE9F84F401F07D0401E0AD0401E49
:204D7C00012835D90A3864D0DDE0BDE8F24F012012F0D6BB7249734C08684269517A4A1E4B
:204D9C00114214D0007C11F03FFD94F82F306E4A16214B431344E36094F82F3011FB03F11A
:204DBC0011444A8942868A898286C989C186206812F0B2FB0546287903281CBF002010F0EA
:204DDC003FFF287A00F00F00082832D0206819E0DFF878A19AF80200FF282AD011F014FD6E
:204DFC0083460BF16C07786812F096FB804698F8040003281DD1D8F80800047814F003041A
:204E1C0004D17868BDE8F24F12F082BB4578032C00F102090BF2171610D05DB138780028C4
:204E3C001CBF9BF8F410012904D13D2070700120307080E04648017801297CD09BF89400E3
:204E5C0060B32D1FEDB24B462A462146584612F05BFB48B93D20707001203070BDE8F24FF5
:204E7C003C48006812F04CBB3B490868804700904FF4D0709BF80620DAF80410424388188F
:204E9C00002180F841110BF59E700168807949080BF04EFB314900980A6890470020032C5C
:204EBC00C8F8080018D02E48416909788A0709D541690878C1074CBF03200020401919F86C
:204EDC00000000E08120387223469AF802002A46494612F011FB1DE099F800001A2803D2DC
:204EFC002049095C8D4205D0B0700721584612F0FFFA0CE011480178082908D1494658464E
:204F1C0002F070F918B94946584612F0EDFA48460DF0DEF9786812F0FBFA41465846BDE830
:204F3C00F44F12F0DDBA002010F08AFEBDE8F24F862012F081BBBDE8F18F00BFC80F00202C
:204F5C00540F0020BC0A0020E0070020780E0020D20F0020680F00209023002094230020DD
:204F7C0098980100D89801007FB5844D03461446084600261946A1F58062132A04D9183A14
:204F9C0033D0921E22D015E0DFE812F0ED001400E500DE00D700CE00C700C2001400B700D5
:204FBC0014001400A6009B00140092006C0052004B003700092907DA022805D1084621887C
:204FDC0012F08AFA0646D6E00226D4E0002840F0D18012F01DFB30B90BF015FB06465020DE
:204FFC0010F0E4FAC7E00D3590E0012840F0C280002C00F0BF800E358DE0602800D13CB96A
:20501C00012840F0B780002C00F0B480093582E005F1A0002146602211F0B0F901206872D0
:20503C00A9E0012840F0A680207812F051FAA2E0012840F09F802078032880F29B800028F5
:20505C0000F098802B4603F1080108702078022818BF301C03D128461021C171012012F099
:20507C0033FA88E0072840F08580611C01A8062211F00AF833460093217801A803AA07F0D8
:20509C0001FA98B912F0C4FA50B99DF80C0005F0F1FC0646502010F089FA0DF003FD6AE0D6
:2050BC009DF80C0020350121295464E0342662E001285FD1217804295CDA2A4602F10A0598
:2050DC004FE0012856D1E87A21780028E97252D1207801284FD1E0E7297A01284AD10229DA
:2050FC0004D02078062801DD112804DB022941D1207810283ED1E8713DE000283AD112F03D
:20511C0087FA10B911F021FAC3E70C35012128E001282FD1AD1D217823E001282AD12178AC
:20513C00012927D86D1D1CE0102823D1284621461022403011F022F91DE001281AD121783B
:20515C00012917D82D1D0CE0012813D12178052910DAED1C05E001280CD12178012909D88E
:20517C00AD1C297007E0012804D121780329B8BF6D1CF6DB1826304600907FBD2C1C00204E
:20519C002DE9FE4FDFF8F88198F8011011B9002010F056FD12F078FA07464FF0000907F65C
:2051BC00C4170026774D784C11E0304611F02CFB417951B12968827901F8092009F1010155
:2051DC005FFA81F9394612F07BF9761CF6B220788642EADB98F80100814505D0002010F040
:2051FC002FFD822012F028FA98F80100012840F0A880002601E0761CF6B22078864280F27C
:20521C009A80304611F000FB074678790028F2D02868B979027891421CBF002010F010FDA7
:20523C00B87986E02868C05D11F0EEFA00684068DAF808108268914204BF34467F1C00F0A6
:20525C008E8090E0296808780123F6B24FF4D07211E0D8F8047007F5B17CCF5CBE4612FBB8
:20527C000EFE02FB00F43CF80EE03CF80440A64538BF38465B1CB342EBDB06464FF6FF70E9
:20529C0012F01AF98246F0B211F0BEFA4FEA5A010068446840F6C410414301F5A060002767
:2052BC000091019016E0F0B211F0AEFA01680A78802A03D1DBF81410009A4A6101680A78DF
:2052DC00402A06D131498079096801EB40110198C8617F1C4F4550DA2868C05D0246F1B29D
:2052FC009142F6D04FF4D071D8F804304A43991803F5B173C9899A5A4B08934202D2891A32
:20531C008945E6DA11F080FA4FEA5A020068D0F804B0A068DBF8081040F6C413A1F6C41183
:20533C0013FB020012F0ACF90028BCD02868C05DC0B2BDE8FE8F002010F082FC822012F053
:20535C007BF998F8011028680AF073FF2868007811F05AFA00240168D1F804A00127661C1F
:20537C004F45FFF65FAFE4B2002C1CBFF0B200287FF468AF2868067880E73046D8E700BF20
:20539C00780E0020340F0020D40F00209C0E00202DE9FE4F0E468246307AC10693461C46F0
:2053BC004FF000090CD5584612F082F8030000F0E9800A223146504698475FEA00094DD1AA
:2053DC003078DDF838800D9D0C9F02281AD170680178407801EB002189B24FF42052891A69
:2053FC00012910D9891E3AD0491E14D0FD397BD0491E00F08280491E6ED0491E74D0491EF1
:20541C0000F09680ACE0002D2AD1F068017839800278416888E0002D22D101203880F06850
:20543C000178217000217089401C80B212F03CF8398860B10278921C5118398041896170B1
:20545C004189090AA17002784168E01C6DE0091D398004220021601C11F07DFD94E0002D18
:20547C0067D1F0680588042139802570290A617028460DF1020112F017F85FEA000821D0BA
:20549C00D8F80C50BDF802204FF6FF766B46314612F006F850B998F80030D8F804203C48CA
:2054BC00022111F0F9FF08B9ADF80060287802280AD169680222201D10F060FF3888801C5C
:2054DC00388001E0ADF80050BDF80000A070BDF80000000AE07057E0002D2AD1F06801682E
:2054FC00504611F03DFA02E01DBBF0680088022139802070000A607046E0F06811F02DFD39
:20551C0080B2A842B8BF4FF007093DDB854208BF002205D005EB08028242B4BF4246421BDA
:20553C003A8092B2F0684119204610F027FF2BE015B14FF00B0927E0F06807213980017836
:20555C002170417861704188A1704188090AE17001792171C1886171C088000AA07113E090
:20557C00584611F095FF5FEA00090BD00F980290CDF8048000953B46224631465046C84793
:20559C00814601E04FF00E094846BDE8FE8F00BF429201002DE9FC41714D0446286800288A
:2055BC001CBFC17A00294AD06E4E3178092918BF0A2904D00B291CBF0C290D2901D1212074
:2055DC00CCE0002C3BD02178002918BF012936D1617800291CBF0129022930D161884FF4A3
:2055FC00A0674FF00A0861B3A28822B108FB01F37A43934223D2C2699378012B18BF042B40
:20561C0009D1B2F804E0BEEB011F3CBFB2F806E0BEEB011F13D2052B13D19388B3EB011F17
:20563C003CBFD388B3EB011F09D2B2F80930B3EB011F3CBFB2F80B20B2EB011F01D312202B
:20565C008CE0C0698178022904BF002010F0F8FA29680C62207801283DD1097B01297CD0D8
:20567C00022006F063FC29683F4A086042603F4A82613F4A42610020087609202968887685
:20569C0000202A6850762868016A8A884988574308FB1177476111F0F7FE01005ED12A6813
:2056BC00012010733178002957D1324A107850B131494869083811F077FF2968086882695D
:2056DC0042F48022826100202C49087005213170FBF7F8FF41E0087B294C58B9497E01291B
:2056FC003BD1207820210EF011FF0021092011F057FF32E02348244F0168884706462078EE
:20571C0020210EF003FF29680020087311F0EAFA012805D011F0ACF929680A68904210D1C1
:20573C000FF018FB40F2014011F0AAFE1749184808600121207805F09BFE396830468847C9
:20575C000BE011F099FE3968304688470021092011F026FF2968002008620020BDE8F681FD
:20577C00500F0020C80F0020E80B002002008080592B0100880E00208C0A0020DA0F002088
:20579C00C70F00209023002094230020480F0020B51701102DE9F843794CA178FF2904BFDF
:2057BC00002010F04DFAA07811F02EF8044604F5C9752089411C61812978012902BF6A8840
:2057DC00401C824207D16A792A71002028701346A17906F013FF04F1820704F12E063878AD
:2057FC00012802BF61897888814230D104F18601204611F03DFE6189E0894118A181F88889
:20581C00B1883A8900EB0108B8898A4204BF3189884202BF7989F388994207D0000900909F
:20583C007B89A1795208002011F01EFEB088A4F864013889B0807889F080B8893081387959
:20585C003070204611F00CFE0220387001E0B6F804802068DFF82C91C168016140F6C41786
:20587C00C16807FB0818C0F80C80C0F80880D9F80010A379C0684FF01C0801F1080218FBA6
:20589C0003F3D050A079D9F8001018FB00F001F10C020C31125C02F0F00242F002020A54B6
:2058BC00D9F80000A279811C18FB02F200208852287908B910F0C4F9D9F80000A27900F146
:2058DC001001287918FB02F240088854A079D9F8001018FB00F008440021417428790428E3
:2058FC0014D1A079D9F8001018FB00F001F110022B7A125C103142EA83020A54A179D9F858
:20591C00000018FB01F1084420214174A179D9F800001D4A18FB01F10844002141821B4939
:20593C001368086BA579006803EB4513B58845436426B5FBF6F56F43A7F596675F61144B3D
:20595C001878012806D11168A07901EB40110122CA7206E0486A1168A279007801EB42118A
:20597C00C872A179D9F8000018FB01F8216840444860204611F070FD0020BDE8F28300BF58
:20599C00780E0020980E00209C0E002098980100CC0F00202DE9F04F4FF000080E468146D2
:2059BC00ADF12C0DCDF8008099F8061043460DF1260206F067FDDFF8ACA1E0B97069002841
:2059DC0037D09DF82610062004AA11FB00F023301021C0B20FF0EEF958BB04A8FF2110221C
:2059FC0010F0E4FB28BB99F80600494600F0010011F02EFD1DE050460A27D346454600F12D
:205A1C0050042046FF21062210F0D0FB78B97F1E04F1080405F10105F3D19BF80E00002845
:205A3C0004BF0A208DF8260007D09BF82A508DF826509DF826000A2801DB15208FE09DF8D1
:205A5C00261006204A4611FB00F505F120000821C0B20FF0BFFD9DF826000DF049F804A82C
:205A7C00FF21102211F077FA9DF82600102104AA7030C0B20FF0AEFD9DF82600494608227C
:205A9C000AEBC000503010F079FC726954467AB1107C02F11101434600F0010011F0D4FCC4
:205ABC0072692AB105F123001021C0B20FF092FDB2682AB105F121001C21C0B20FF08AFD89
:205ADC0032692AB105F122001C21C0B20FF082FDF26862B105F124001021C0B20FF07AFD4F
:205AFC00F26825350421E8B210320FF073FDE07A08B10FF06DFBE169B58861B904F1100046
:205B1C00194A00904FF6FF710223012011F098FC0146E16111B308A80090CDF804800227E7
:205B3C000297FF260396228A0DF122032846FFF72FFC58B99DF823109DF82220E06912EB9E
:205B5C00012204D0418928460BF01AFFE069228A4FF6FF71434611F0A3FCE06140460BB091
:205B7C00BDE8F08F2C1C00204C92010000B5ADF11C0D01928DF80A1000900098C089C01DA2
:205B9C00ADF808006B48BDF8081000884018B0F5005F00F3CA800098017A0098C088001296
:205BBC0061F39F008DF810000098C08800F0FF008DF8110000988088C0F387008DF812006B
:205BDC00009800998088C98900F00300C1F3851141EA80118DF813100098C08900F03F006D
:205BFC0080008DF814000098C089ADF80E005148BDF80E1000884018ADF80C00BDF8080022
:205C1C000C284ADC0199BDF80E204B4808F09CF94949BDF80E00401804A90A6802600979C1
:205C3C000171BDF80E00401D81B2434800220FF07DFD8DF818009DF814109DF81800C0F3A7
:205C5C00811008438DF814009DF8180000F03F00800040F002008DF8150096208DF816003A
:205C7C00BDF80E003449401804A90A6802608A888280897981712F49BDF808302E4A9DF875
:205C9C000A00098808F0D2FE2C4908702949BDF808200888801808803FE0BDF80E1001980E
:205CBC0000220FF043FD8DF818009DF81820052104A80FF03BFD8DF818009DF814109DF809
:205CDC001800C0F3811008438DF814009DF8180000F03F00800040F002008DF8150096208A
:205CFC008DF8160013499DF80A00BDF80E30019A098808F09BFE114908709DF80A00BDF81C
:205D1C000C1004AA072308F091FE0C4908700949BDF808200888801808800848007838B18F
:205D3C00BDF80C000DF02CFE02E004490520087007B000BD603E00206C3F0020633E0020D5
:205D5C002DE9F04F0646B06853EC102B4FF00008ADF16C0D00281A9102D003D5062000E013
:205D7C000120B0603021471C9946924660A58DF800101046194695E80C0008F0EFFF38BFB6
:205D9C0089F00049444612E03020087053E09BE80C0004F003FC641E894682460FE09BE8A1
:205DBC000C00504603F074F9641C8946824654A20CCA494609F015F80FF23C1BEFD395E8B6
:205DDC000C00504608F0CAFF05D04FA20CCA504608F0C4FFDBD350460DF01EFA0DF10101FE
:205DFC0019900CF04BFA0DEB00052418874205F1010518DD3F1A19980FF0F7F80B46024619
:205E1C004946504600F0C6FD9BE80C0004F0C6FB894682460DF000FA199030307F1E05F819
:205E3C00010BE8D102E00DEB07056D1C15F8010D34280BDD294611F8010C401CC2B23A2AFA
:205E5C0001F8010DA0DA6F468F4204D040460DF10107287002E0641C05F8018C14F1030F24
:205E7C0007DBB068A04212DA022CA4BF641EA04405DA002C04DCC4F10104A8EB04080124DE
:205E9C00307B1A9A801EC1B240460CF01AFB384611F00AFC0025401E844219DC021B521C91
:205EBC00002803D4395C302901D004E0302115B933681B0908D3DDF868C0DCF800305D1EEF
:205EDC00CCF8005001251970521EA0F10100E7D13068002200F00800284318BF01221A9B5D
:205EFC00214638460AF037F91BB0BDE8F08FC046000000000000000000000000000024401E
:205F1C000000C0FFFFFFDF41000000000000F03F00B5ADF1140D01910090614901988142BD
:205F3C004AD10020039000208DF8080035E000208DF809009DF80900082829DA9DF8090098
:205F5C0059490001085A4FF6FF71814217D09DF80910564800EB011008F0C2FB0146514AE2
:205F7C009DF8080052F830000F220FF05DFC30B99DF80810012088400399084303909DF8D7
:205F9C000900401C8DF809009DF809000828D5DB9DF80800401C8DF8080045489DF80810B4
:205FBC0000688842C3D80398039A4FF0FF3181433B480EF01FF971E03E49019881425CD193
:205FDC003D48006818B13C48006810F00DFE3B480078C0EB001080B210F0D2FC364908605B
:205FFC003548006818B936490020086056E034490820086030480068039000208DF8080065
:20601C009DF80800082849DA9DF8080026490001085A4FF6FF7181421DD09DF80810234888
:20603C0000EB011008F05CFB014603980F2207F08BFF9DF80810234A039842F831009DF8B0
:20605C000800012181401B4800220EF0D3F803980F30039007E09DF80800012282401548B8
:20607C0000210EF0C7F89DF80800401C8DF808009DF808000828C7DB10E013490198814289
:20609C000CD112494FF6FF70088012480078401CC1B20F480068002210F0A0FD05B000BDDF
:2060BC00741F0020841F0020E0370020E23700207C1F0020C41F0020A03E0020B02300202F
:2060DC00CC1F0020D41F002060200020B2230020AC2300202F4000202DE9F04FADF1140D5F
:2060FC000FF050FA039020B10BF01CFF4FF0FF3003906A4C04F10800006800B180475F4886
:20611C0007780025029736E00098E16810F8062CA0F10C07032A2CD0029E9DF8053056B1B7
:20613C00606A2946401E10F8012F934205D0761E01F10101F7D1FF2600E0CEB250480068F5
:20615C00FF2E00F1080011D038790EF06FF9B979012904D0022904BF0099887001E00099DC
:20617C000870009930460FF0CBFD04E00068804701E001B1884742480068C3690DF105011E
:20619C006A4601A898470028BED03E4A029E11683046AE42CCBF761B012690466F00CB5B40
:2061BC00DFF8E4B0DFF8E49023B96D1C761EEDB2F4D121E0A8421FDD5E4630688047D8F8F6
:2061DC000010002231F807A0CA53D9F8001088472F4850F825202570514628469047054614
:2061FC00FF20207030688047D8F800107A5A15437D52D9F8001088470FF0C4F90746039846
:20621C00B8421DD007B9234FA069B84238BF071C5E4630688047824619480068016AE069E4
:20623C008847226A16481C49521C00682262C56804F11C033846A8474846016850468847C0
:20625C000F48616802682069243291B9029ED8F800100025AE420EDD31F8150030B1084880
:20627C000068416A20698847D8F800106D1CEDB2F0E71168884705B0BDE8F08F4B980100B3
:20629C00482500201C4000209023002094230020B49201008EC2F5288144010098220020DB
:2062BC002DE9F04F8246ADF11C0D02F053F95C4800780CF021FA5B4D0024012806D90C3855
:2062DC0004D0401E0ED0401E09D006E00FF0AEFF022804BF01210C1C06D0296806E005211F
:2062FC001F2401E003210724284601604E4AD068C0F38150012804D112680120120E904063
:20631C00044310F06DFBDFF828B1DFF82081FF2240185B46401E471CC8F800007F1E03F857
:20633C00012BFBD1DAF80020002702F0FF03FE2B1CD0D4463B46012602F0FF05FF2D0ED065
:20635C00A84205D3A94203D806FA05F52C4201D0022062E002F0FF022F430BF802305CF80E
:20637C00042F5B1C02F0FF05FE2DE7D1092005F0A5FE3048C0F800A0374801210EF0E6FE6A
:20639C00364D00264FF00109B04609FA06F0044214D1074207BF06F0FF0141F4C0411BF887
:2063BC0006005AF82010244804F014FFF0B24FF0FF310FF0C1FDC5F8008001E0042028602E
:2063DC001A480068761C2D1D8642DED904A810F0CFFA1A4C20781B4A05901948102104ABCE
:2063FC000DF06EFC684610F023FB6068174902901548CDF80C806A460DF0EEFD144951F8A8
:20641C000D0C20F4F85040F4005041F80D0C114AC1F8FF9F4046C2F8009007B0BDE8F08FB8
:20643C002C40002094240020A84F005090240020C43C0020F83F0020007FC767D097010035
:20645C00783D0020715F01004C3B0020793501000D3009402C000940943D0020E038002000
:20647C00F0B56B4B04686B4D6B48617D1A68ADF1140D491E0E295BD8DFE801F060A9084BCA
:20649C004D9E124B1F8D2F4B7F334BC020690368806829685B684068CC69C118A04735E0D3
:2064BC0021692D6888680B68E96940685B680D460021A84721698A681FE020692B6801681E
:2064DC005C6D4A6980684D6840680092CA68019202958A680B694119E0E720690368C0684E
:2064FC00D7E721692D68C8680B68E96940685B680D460021A8472169CA68044609685068B1
:20651C004A680021801809F0BFF820460CF01FFC7BE0002079E0206940684068017811F0A0
:20653C00070F05D1C17F31F07F0001D1C80902D24FF0FF3069E06FF0200066E020692A6865
:20655C0041680368526C486859689047002818BF6FF0040059D1226929685068CB6A1268F6
:20657C004068D168526898472868406A80470828FAD0286840688047C8E721690446086898
:20659C00256D4268ED6D009201934E6889684968826803692BE0266904463068B168256D4E
:2065BC000769426849682D6A0097476901970292039376688A1819E0216904460868256D05
:2065DC004268ED6D009201934E688169E0E7216904460868256D02692D6A00924269019266
:2065FC004268029203934E68C269816983687068A8472068006A0146132088472068006902
:20661C000146132088476FF01F0005B0F0BDC0465C39002000020010B00100102DE9F0435E
:20663C001F4615460E468046ADF1140D10F004FF022808BF122000F0C780042D19DA0224FE
:20665C00012D18BF032D16D19FB1012D18BF032D11D13846002105220FF0A8FD3846FF2193
:20667C0006220FF0A3FD20B9787920F03F00C02801D00220A8E04046401E0DD0401E0ED0BE
:20669C00401E012808D9C01E06D0801E07D0401E02D0C01E03D096E0002C40F09480042062
:2066BC00012104AA0EF086FB002831D19DF81000FF2803D09DF81000854218D19DF81000AC
:2066DC00854225D1012D18BF032D21D168460021062208F0D9FF06206A4601460EF06AFB73
:2066FC00B0B96846394606220FF0EAFA80B9002140F209400A46FEF737FC0446002140F2F3
:20671C001A400A46FEF730FC204318BF1E205BD12F48012D0570814618BF032D02D13846B5
:20673C0010F086FE2B4C0620667010F07DFEC0B200B960782070404610F072FE041C42D10F
:20675C0068460021102208F09FFF99F8000030F001000DD010F058FFFF2110220FF026FD2C
:20677C00012809D1022010216A460EF023FB18B90020694610F050FE10F042FF0021102259
:20679C000FF014FD01280FD1032010216A460EF011FB48B96846FF2110220FF007FD18B9E1
:2067BC000120694610F038FE10F02AFF002110F02FFE10F029FF10F027FE10F021FE10F0D4
:2067DC001BFE10F015FEE0B205B0BDE8F083C046A90F00203825002000B5ADF1240D0290A1
:2067FC006048007801281BD102980079032840F0AC805D480088ADF80C005A490220087093
:20681C005A48017850200CF043FE02210091019002985749428803AB102006F0DFFE94E026
:20683C0050480078022855D10298007907281FD10298008900281BDD0298C068407800F0FD
:20685C00FF010298C068007800F0FF0000EB0120484908800298C068C07800F0FF0102984A
:20687C00C068807800F0FF0000EB01204249088002980079072803D1029840781A2803D051
:20689C0002980079012860D13A48008800285CD034490320087037480088ADF80C003648C3
:2068BC000088ADF80E0002208DF8100011208DF8110011208DF812002C48017850200CF0E2
:2068DC00E7FD009002982D49428803AB102006F085FE3AE023480078032836D102980079B5
:2068FC0009282FD10298008900282BDD244800880CF04EFB8DF80C009DF80C00082801DB81
:20691C0010F08EF80298C068007900F0FF010298C0681C4AC07800F0FF0000EB01209DF8BA
